{
  "contractName": "AccessControl",
  "abi": [
    {
      "constant": true,
      "inputs": [],
      "name": "features",
      "outputs": [
        {
          "name": "",
          "type": "uint256"
        }
      ],
      "payable": false,
      "stateMutability": "view",
      "type": "function"
    },
    {
      "constant": true,
      "inputs": [
        {
          "name": "",
          "type": "address"
        }
      ],
      "name": "userRoles",
      "outputs": [
        {
          "name": "",
          "type": "uint256"
        }
      ],
      "payable": false,
      "stateMutability": "view",
      "type": "function"
    },
    {
      "inputs": [],
      "payable": false,
      "stateMutability": "nonpayable",
      "type": "constructor"
    },
    {
      "anonymous": false,
      "inputs": [
        {
          "indexed": true,
          "name": "_by",
          "type": "address"
        },
        {
          "indexed": false,
          "name": "_requested",
          "type": "uint256"
        },
        {
          "indexed": false,
          "name": "_actual",
          "type": "uint256"
        }
      ],
      "name": "FeaturesUpdated",
      "type": "event"
    },
    {
      "anonymous": false,
      "inputs": [
        {
          "indexed": true,
          "name": "_by",
          "type": "address"
        },
        {
          "indexed": true,
          "name": "_to",
          "type": "address"
        },
        {
          "indexed": false,
          "name": "_role",
          "type": "uint256"
        }
      ],
      "name": "RoleUpdated",
      "type": "event"
    },
    {
      "constant": false,
      "inputs": [
        {
          "name": "mask",
          "type": "uint256"
        }
      ],
      "name": "updateFeatures",
      "outputs": [],
      "payable": false,
      "stateMutability": "nonpayable",
      "type": "function"
    },
    {
      "constant": false,
      "inputs": [
        {
          "name": "operator",
          "type": "address"
        },
        {
          "name": "role",
          "type": "uint256"
        }
      ],
      "name": "addOperator",
      "outputs": [],
      "payable": false,
      "stateMutability": "nonpayable",
      "type": "function"
    },
    {
      "constant": false,
      "inputs": [
        {
          "name": "operator",
          "type": "address"
        }
      ],
      "name": "removeOperator",
      "outputs": [],
      "payable": false,
      "stateMutability": "nonpayable",
      "type": "function"
    },
    {
      "constant": false,
      "inputs": [
        {
          "name": "operator",
          "type": "address"
        },
        {
          "name": "role",
          "type": "uint256"
        }
      ],
      "name": "addRole",
      "outputs": [],
      "payable": false,
      "stateMutability": "nonpayable",
      "type": "function"
    },
    {
      "constant": false,
      "inputs": [
        {
          "name": "operator",
          "type": "address"
        },
        {
          "name": "role",
          "type": "uint256"
        }
      ],
      "name": "removeRole",
      "outputs": [],
      "payable": false,
      "stateMutability": "nonpayable",
      "type": "function"
    }
  ],
  "bytecode": "0x608060405234801561001057600080fd5b507fffffffffffffffffffffffffffffffffffffffffffffffffffffffffffffffff600160003373ffffffffffffffffffffffffffffffffffffffff1673ffffffffffffffffffffffffffffffffffffffff16815260200190815260200160002081905550610ab9806100846000396000f300608060405260043610610083576000357c0100000000000000000000000000000000000000000000000000000000900463ffffffff1680630f7fa72f146100885780632b521416146100d557806374d5e1001461010057806379db5f67146101575780637fde1c8a146101a4578063ac8a584a146101f1578063d5bb7f6714610234575b600080fd5b34801561009457600080fd5b506100d3600480360381019080803573ffffffffffffffffffffffffffffffffffffffff16906020019092919080359060200190929190505050610261565b005b3480156100e157600080fd5b506100ea610416565b6040518082815260200191505060405180910390f35b34801561010c57600080fd5b50610141600480360381019080803573ffffffffffffffffffffffffffffffffffffffff16906020019092919050505061041c565b6040518082815260200191505060405180910390f35b34801561016357600080fd5b506101a2600480360381019080803573ffffffffffffffffffffffffffffffffffffffff16906020019092919080359060200190929190505050610434565b005b3480156101b057600080fd5b506101ef600480360381019080803573ffffffffffffffffffffffffffffffffffffffff169060200190929190803590602001909291905050506105c6565b005b3480156101fd57600080fd5b50610232600480360381019080803573ffffffffffffffffffffffffffffffffffffffff169060200190929190505050610785565b005b34801561024057600080fd5b5061025f6004803603810190808035906020019092919050505061095a565b005b6000806000339250600160008473ffffffffffffffffffffffffffffffffffffffff1673ffffffffffffffffffffffffffffffffffffffff1681526020019081526020016000205491506000600160008773ffffffffffffffffffffffffffffffffffffffff1673ffffffffffffffffffffffffffffffffffffffff168152602001908152602001600020541415156102f957600080fd5b610307826310000000610a7e565b151561031257600080fd5b81841690506000811415151561032757600080fd5b80600160008773ffffffffffffffffffffffffffffffffffffffff1673ffffffffffffffffffffffffffffffffffffffff168152602001908152602001600020819055508473ffffffffffffffffffffffffffffffffffffffff168373ffffffffffffffffffffffffffffffffffffffff167fde4cd40876c200276a5c070f12c8512913143450b14c88bfaa4245b24a5092af600160008973ffffffffffffffffffffffffffffffffffffffff1673ffffffffffffffffffffffffffffffffffffffff168152602001908152602001600020546040518082815260200191505060405180910390a35050505050565b60005481565b60016020528060005260406000206000915090505481565b6000806000339250600160008473ffffffffffffffffffffffffffffffffffffffff1673ffffffffffffffffffffffffffffffffffffffff16815260200190815260200160002054915061048c826310000000610a7e565b151561049757600080fd5b8184169050600081141515156104ac57600080fd5b807fffffffffffffffffffffffffffffffffffffffffffffffffffffffffffffffff18600160008773ffffffffffffffffffffffffffffffffffffffff1673ffffffffffffffffffffffffffffffffffffffff168152602001908152602001600020600082825416925050819055508473ffffffffffffffffffffffffffffffffffffffff168373ffffffffffffffffffffffffffffffffffffffff167fde4cd40876c200276a5c070f12c8512913143450b14c88bfaa4245b24a5092af600160008973ffffffffffffffffffffffffffffffffffffffff1673ffffffffffffffffffffffffffffffffffffffff168152602001908152602001600020546040518082815260200191505060405180910390a35050505050565b6000806000339250600160008473ffffffffffffffffffffffffffffffffffffffff1673ffffffffffffffffffffffffffffffffffffffff1681526020019081526020016000205491506000600160008773ffffffffffffffffffffffffffffffffffffffff1673ffffffffffffffffffffffffffffffffffffffff168152602001908152602001600020541415151561065f57600080fd5b61066d826310000000610a7e565b151561067857600080fd5b81841690506000811415151561068d57600080fd5b80600160008773ffffffffffffffffffffffffffffffffffffffff1673ffffffffffffffffffffffffffffffffffffffff168152602001908152602001600020600082825417925050819055508473ffffffffffffffffffffffffffffffffffffffff168373ffffffffffffffffffffffffffffffffffffffff167fde4cd40876c200276a5c070f12c8512913143450b14c88bfaa4245b24a5092af600160008973ffffffffffffffffffffffffffffffffffffffff1673ffffffffffffffffffffffffffffffffffffffff168152602001908152602001600020546040518082815260200191505060405180910390a35050505050565b60003390506000600160008473ffffffffffffffffffffffffffffffffffffffff1673ffffffffffffffffffffffffffffffffffffffff16815260200190815260200160002054141515156107d957600080fd5b8073ffffffffffffffffffffffffffffffffffffffff168273ffffffffffffffffffffffffffffffffffffffff161415151561081457600080fd5b6108a2600160008373ffffffffffffffffffffffffffffffffffffffff1673ffffffffffffffffffffffffffffffffffffffff16815260200190815260200160002054600160008573ffffffffffffffffffffffffffffffffffffffff1673ffffffffffffffffffffffffffffffffffffffff16815260200190815260200160002054631000000017610a7e565b15156108ad57600080fd5b600160008373ffffffffffffffffffffffffffffffffffffffff1673ffffffffffffffffffffffffffffffffffffffff168152602001908152602001600020600090558173ffffffffffffffffffffffffffffffffffffffff168173ffffffffffffffffffffffffffffffffffffffff167fde4cd40876c200276a5c070f12c8512913143450b14c88bfaa4245b24a5092af60006040518082815260200191505060405180910390a35050565b600080339150600160008373ffffffffffffffffffffffffffffffffffffffff1673ffffffffffffffffffffffffffffffffffffffff1681526020019081526020016000205490506109b0816320000000610a7e565b15156109bb57600080fd5b8281166000808282541792505081905550827fffffffffffffffffffffffffffffffffffffffffffffffffffffffffffffffff1881167fffffffffffffffffffffffffffffffffffffffffffffffffffffffffffffffff1860008082825416925050819055508173ffffffffffffffffffffffffffffffffffffffff167fd7561eaef77f105dc0c307bfb23c571f603f07bb7db5766a68840742fde80b8984600054604051808381526020018281526020019250505060405180910390a2505050565b600081828416149050929150505600a165627a7a72305820dcec1cea1d3e68cdc6f6f56691f920e3b2a08b043fb7c7a6748b06c7da28e1240029",
  "source": "pragma solidity 0.4.24;\n\n/**\n * @dev Access control module provides an API to check\n *      if specific operation is permitted globally and\n *      if particular user's has a permission to execute it\n */\ncontract AccessControl {\n  /// @notice Role manager is responsible for assigning the roles\n  /// @dev Role ROLE_ROLE_MANAGER allows executing addOperator/removeOperator\n  uint256 private constant ROLE_ROLE_MANAGER = 0x10000000;\n\n  /// @notice Feature manager is responsible for enabling/disabling\n  ///      global features of the smart contract\n  /// @dev Role ROLE_FEATURE_MANAGER allows enabling/disabling global features\n  uint256 private constant ROLE_FEATURE_MANAGER = 0x20000000;\n\n  /// @dev Bitmask representing all the possible permissions (super admin role)\n  uint256 private constant FULL_PRIVILEGES_MASK = 0xFFFFFFFFFFFFFFFFFFFFFFFFFFFFFFFFFFFFFFFFFFFFFFFFFFFFFFFFFFFFFFFF;\n\n  /// @dev A bitmask of globally enabled features\n  uint256 public features;\n\n  /// @notice Privileged addresses with defined roles/permissions\n  /// @notice In the context of ERC20/ERC721 tokens these can be permissions to\n  ///      allow minting tokens, transferring on behalf and so on\n  /// @dev Maps an address to the permissions bitmask (role), where each bit\n  ///      represents a permission\n  /// @dev Bitmask 0xFFFFFFFFFFFFFFFFFFFFFFFFFFFFFFFFFFFFFFFFFFFFFFFFFFFFFFFFFFFFFFFF\n  ///      represents all possible permissions\n  mapping(address => uint256) public userRoles;\n\n  /// @dev Fired in updateFeatures()\n  event FeaturesUpdated(address indexed _by, uint256 _requested, uint256 _actual);\n\n  /// @dev Fired in addOperator(), removeOperator(), addRole(), removeRole()\n  event RoleUpdated(address indexed _by, address indexed _to, uint256 _role);\n\n  /**\n   * @dev Creates an access controlled instance\n   */\n  constructor() public {\n    // contract creator has full privileges\n    userRoles[msg.sender] = FULL_PRIVILEGES_MASK;\n  }\n\n  /**\n   * @dev Updates set of the globally enabled features (`f`),\n   *      taking into account sender's permissions.\n   * @dev Requires sender to have `ROLE_FEATURE_MANAGER` permission.\n   * @param mask bitmask representing a set of features to enable/disable\n   */\n  function updateFeatures(uint256 mask) public {\n    // call sender nicely - caller\n    address caller = msg.sender;\n    // read caller's permissions\n    uint256 p = userRoles[caller];\n\n    // caller should have a permission to update global features\n    require(__hasRole(p, ROLE_FEATURE_MANAGER));\n\n    // taking into account caller's permissions,\n    // 1) enable features requested\n    features |= p & mask;\n    // 2) disable features requested\n    features &= FULL_PRIVILEGES_MASK ^ (p & (FULL_PRIVILEGES_MASK ^ mask));\n\n    // fire an event\n    emit FeaturesUpdated(caller, mask, features);\n  }\n\n  /**\n   * @dev Adds a new `operator` - an address which has\n   *      some extended privileges over the smart contract,\n   *      for example token minting, transferring on behalf, etc.\n   * @dev Newly added `operator` cannot have any permissions which\n   *      transaction sender doesn't have.\n   * @dev Requires transaction sender to have `ROLE_ROLE_MANAGER` permission.\n   * @dev Cannot update existing operator. Throws if `operator` already exists.\n   * @param operator address of the operator to add\n   * @param role bitmask representing a set of permissions which\n   *      newly created operator will have\n   */\n  function addOperator(address operator, uint256 role) public {\n    // call sender gracefully - `manager`\n    address manager = msg.sender;\n\n    // read manager's permissions (role)\n    uint256 permissions = userRoles[manager];\n\n    // check that `operator` doesn't exist\n    require(userRoles[operator] == 0);\n\n    // manager must have a ROLE_ROLE_MANAGER role\n    require(__hasRole(permissions, ROLE_ROLE_MANAGER));\n\n    // recalculate permissions (role) to set:\n    // we cannot create an operator more powerful then calling `manager`\n    uint256 r = role & permissions;\n\n    // check if we still have some permissions (role) to set\n    require(r != 0);\n\n    // create an operator by persisting his permissions (roles) to storage\n    userRoles[operator] = r;\n\n    // fire an event\n    emit RoleUpdated(manager, operator, userRoles[operator]);\n  }\n\n  /**\n   * @dev Deletes an existing `operator`.\n   * @dev Requires sender to have `ROLE_ROLE_MANAGER` permission.\n   * @param operator address of the operator to delete\n   */\n  function removeOperator(address operator) public {\n    // call sender gracefully - `manager`\n    address manager = msg.sender;\n\n    // check if an `operator` exists\n    require(userRoles[operator] != 0);\n\n    // do not allow transaction sender to remove himself\n    // protects from an accidental removal of all the operators\n    require(operator != manager);\n\n    // manager must have a ROLE_ROLE_MANAGER role\n    // and he must have all the permissions operator has\n    require(__hasRole(userRoles[manager], ROLE_ROLE_MANAGER | userRoles[operator]));\n\n    // perform operator deletion\n    delete userRoles[operator];\n\n    // fire an event\n    emit RoleUpdated(manager, operator, 0);\n  }\n\n  /**\n   * @dev Updates an existing `operator`, adding a specified role to it.\n   * @dev Note that `operator` cannot receive permission which\n   *      transaction sender doesn't have.\n   * @dev Requires transaction sender to have `ROLE_ROLE_MANAGER` permission.\n   * @dev Cannot create a new operator. Throws if `operator` doesn't exist.\n   * @dev Existing permissions of the `operator` are preserved\n   * @param operator address of the operator to update\n   * @param role bitmask representing a set of permissions which\n   *      `operator` will have\n   */\n  function addRole(address operator, uint256 role) public {\n    // call sender gracefully - `manager`\n    address manager = msg.sender;\n\n    // read manager's permissions (role)\n    uint256 permissions = userRoles[manager];\n\n    // check that `operator` exists\n    require(userRoles[operator] != 0);\n\n    // manager must have a ROLE_ROLE_MANAGER role\n    require(__hasRole(permissions, ROLE_ROLE_MANAGER));\n\n    // recalculate permissions (role) to add:\n    // we cannot make an operator more powerful then calling `manager`\n    uint256 r = role & permissions;\n\n    // check if we still have some permissions (role) to add\n    require(r != 0);\n\n    // update operator's permissions (roles) in the storage\n    userRoles[operator] |= r;\n\n    // fire an event\n    emit RoleUpdated(manager, operator, userRoles[operator]);\n  }\n\n  /**\n   * @dev Updates an existing `operator`, removing a specified role from it.\n   * @dev Note that  permissions which transaction sender doesn't have\n   *      cannot be removed.\n   * @dev Requires transaction sender to have `ROLE_ROLE_MANAGER` permission.\n   * @dev Cannot remove all permissions. Throws on such an attempt.\n   * @param operator address of the operator to update\n   * @param role bitmask representing a set of permissions which\n   *      will be removed from the `operator`\n   */\n  function removeRole(address operator, uint256 role) public {\n    // call sender gracefully - `manager`\n    address manager = msg.sender;\n\n    // read manager's permissions (role)\n    uint256 permissions = userRoles[manager];\n\n    // check that we're not removing all the `operator`s permissions\n    // this is not really required and just causes inconveniences is function use\n    //require(userRoles[operator] ^ role != 0);\n\n    // manager must have a ROLE_ROLE_MANAGER role\n    require(__hasRole(permissions, ROLE_ROLE_MANAGER));\n\n    // recalculate permissions (role) to remove:\n    // we cannot revoke permissions which calling `manager` doesn't have\n    uint256 r = role & permissions;\n\n    // check if we still have some permissions (role) to revoke\n    require(r != 0);\n\n    // update operator's permissions (roles) in the storage\n    userRoles[operator] &= FULL_PRIVILEGES_MASK ^ r;\n\n    // fire an event\n    emit RoleUpdated(manager, operator, userRoles[operator]);\n  }\n\n  /// @dev Checks if requested feature is enabled globally on the contract\n  function __isFeatureEnabled(uint256 featureRequired) internal constant returns(bool) {\n    // delegate call to `__hasRole`\n    return __hasRole(features, featureRequired);\n  }\n\n  /// @dev Checks if transaction sender `msg.sender` has all the required permissions `roleRequired`\n  function __isSenderInRole(uint256 roleRequired) internal constant returns(bool) {\n    // read sender's permissions (role)\n    uint256 userRole = userRoles[msg.sender];\n\n    // delegate call to `__hasRole`\n    return __hasRole(userRole, roleRequired);\n  }\n\n  /// @dev Checks if user role `userRole` contain all the permissions required `roleRequired`\n  function __hasRole(uint256 userRole, uint256 roleRequired) internal pure returns(bool) {\n    // check the bitmask for the role required and return the result\n    return userRole & roleRequired == roleRequired;\n  }\n}\n",
  "sourcePath": "/Users/joshpitzalis/Desktop/auction/contracts/AccessControl.sol",
  "compiler": {
    "name": "solc",
    "version": "0.4.24+commit.e67f0147.Emscripten.clang"
  },
  "schemaVersion": "2.0.0",
  "updatedAt": "2018-08-24T09:28:23.218Z"
}