{
  "contractName": "ChestVault",
  "abi": [
    {
      "constant": true,
      "inputs": [],
      "name": "unlockTime",
      "outputs": [
        {
          "name": "",
          "type": "uint256"
        }
      ],
      "payable": false,
      "stateMutability": "view",
      "type": "function"
    },
    {
      "constant": true,
      "inputs": [],
      "name": "owner2",
      "outputs": [
        {
          "name": "",
          "type": "address"
        }
      ],
      "payable": false,
      "stateMutability": "view",
      "type": "function"
    },
    {
      "constant": true,
      "inputs": [],
      "name": "owner1",
      "outputs": [
        {
          "name": "",
          "type": "address"
        }
      ],
      "payable": false,
      "stateMutability": "view",
      "type": "function"
    },
    {
      "inputs": [
        {
          "name": "_owner1",
          "type": "address"
        },
        {
          "name": "_owner2",
          "type": "address"
        }
      ],
      "payable": false,
      "stateMutability": "nonpayable",
      "type": "constructor"
    },
    {
      "payable": true,
      "stateMutability": "payable",
      "type": "fallback"
    },
    {
      "anonymous": false,
      "inputs": [
        {
          "indexed": true,
          "name": "from",
          "type": "address"
        },
        {
          "indexed": false,
          "name": "amount",
          "type": "uint256"
        }
      ],
      "name": "PaymentReceived",
      "type": "event"
    },
    {
      "anonymous": false,
      "inputs": [
        {
          "indexed": true,
          "name": "to",
          "type": "address"
        },
        {
          "indexed": false,
          "name": "amount",
          "type": "uint256"
        }
      ],
      "name": "FundsWithdrawn",
      "type": "event"
    },
    {
      "constant": false,
      "inputs": [
        {
          "name": "to",
          "type": "address"
        }
      ],
      "name": "withdraw",
      "outputs": [],
      "payable": false,
      "stateMutability": "nonpayable",
      "type": "function"
    },
    {
      "constant": false,
      "inputs": [],
      "name": "revoke",
      "outputs": [],
      "payable": false,
      "stateMutability": "nonpayable",
      "type": "function"
    }
  ],
  "bytecode": "0x608060405234801561001057600080fd5b50604051604080610c4b8339810180604052810190808051906020019092919080519060200190929190505050600073ffffffffffffffffffffffffffffffffffffffff168273ffffffffffffffffffffffffffffffffffffffff161415151561007957600080fd5b600073ffffffffffffffffffffffffffffffffffffffff168173ffffffffffffffffffffffffffffffffffffffff16141515156100b557600080fd5b8073ffffffffffffffffffffffffffffffffffffffff168273ffffffffffffffffffffffffffffffffffffffff16141515156100f057600080fd5b816000806101000a81548173ffffffffffffffffffffffffffffffffffffffff021916908373ffffffffffffffffffffffffffffffffffffffff16021790555080600160006101000a81548173ffffffffffffffffffffffffffffffffffffffff021916908373ffffffffffffffffffffffffffffffffffffffff1602179055506276a70042016002819055505050610abd8061018e6000396000f30060806040526004361061006d576000357c0100000000000000000000000000000000000000000000000000000000900463ffffffff168063251c1aa3146100bd57806351cff8d9146100e8578063527097251461012b5780637368891414610182578063b6549f75146101d9575b3373ffffffffffffffffffffffffffffffffffffffff167f6ef95f06320e7a25a04a175ca677b7052bdd97131872c2192525a629f51be770346040518082815260200191505060405180910390a2005b3480156100c957600080fd5b506100d26101f0565b6040518082815260200191505060405180910390f35b3480156100f457600080fd5b50610129600480360381019080803573ffffffffffffffffffffffffffffffffffffffff1690602001909291905050506101f6565b005b34801561013757600080fd5b5061014061078f565b604051808273ffffffffffffffffffffffffffffffffffffffff1673ffffffffffffffffffffffffffffffffffffffff16815260200191505060405180910390f35b34801561018e57600080fd5b506101976107b5565b604051808273ffffffffffffffffffffffffffffffffffffffff1673ffffffffffffffffffffffffffffffffffffffff16815260200191505060405180910390f35b3480156101e557600080fd5b506101ee6107da565b005b60025481565b600080600073ffffffffffffffffffffffffffffffffffffffff168373ffffffffffffffffffffffffffffffffffffffff161415151561023557600080fd5b3391503073ffffffffffffffffffffffffffffffffffffffff1631905060008111151561026157600080fd5b6002544211151561027157600080fd5b6000809054906101000a900473ffffffffffffffffffffffffffffffffffffffff1673ffffffffffffffffffffffffffffffffffffffff168273ffffffffffffffffffffffffffffffffffffffff1614801561031b5750600360009054906101000a900473ffffffffffffffffffffffffffffffffffffffff1673ffffffffffffffffffffffffffffffffffffffff168373ffffffffffffffffffffffffffffffffffffffff1614155b806103cd5750600160009054906101000a900473ffffffffffffffffffffffffffffffffffffffff1673ffffffffffffffffffffffffffffffffffffffff168273ffffffffffffffffffffffffffffffffffffffff161480156103cc5750600460009054906101000a900473ffffffffffffffffffffffffffffffffffffffff1673ffffffffffffffffffffffffffffffffffffffff168373ffffffffffffffffffffffffffffffffffffffff1614155b5b15156103d857600080fd5b6000809054906101000a900473ffffffffffffffffffffffffffffffffffffffff1673ffffffffffffffffffffffffffffffffffffffff168273ffffffffffffffffffffffffffffffffffffffff1614801561048157508273ffffffffffffffffffffffffffffffffffffffff16600460009054906101000a900473ffffffffffffffffffffffffffffffffffffffff1673ffffffffffffffffffffffffffffffffffffffff16145b806105325750600160009054906101000a900473ffffffffffffffffffffffffffffffffffffffff1673ffffffffffffffffffffffffffffffffffffffff168273ffffffffffffffffffffffffffffffffffffffff1614801561053157508273ffffffffffffffffffffffffffffffffffffffff16600360009054906101000a900473ffffffffffffffffffffffffffffffffffffffff1673ffffffffffffffffffffffffffffffffffffffff16145b5b15610655576000600360006101000a81548173ffffffffffffffffffffffffffffffffffffffff021916908373ffffffffffffffffffffffffffffffffffffffff1602179055506000600460006101000a81548173ffffffffffffffffffffffffffffffffffffffff021916908373ffffffffffffffffffffffffffffffffffffffff1602179055508273ffffffffffffffffffffffffffffffffffffffff166108fc829081150290604051600060405180830381858888f19350505050158015610601573d6000803e3d6000fd5b508273ffffffffffffffffffffffffffffffffffffffff167feaff4b37086828766ad3268786972c0cd24259d4c87a80f9d3963a3c3d999b0d826040518082815260200191505060405180910390a261078a565b6000809054906101000a900473ffffffffffffffffffffffffffffffffffffffff1673ffffffffffffffffffffffffffffffffffffffff168273ffffffffffffffffffffffffffffffffffffffff1614156106f05782600360006101000a81548173ffffffffffffffffffffffffffffffffffffffff021916908373ffffffffffffffffffffffffffffffffffffffff160217905550610789565b600160009054906101000a900473ffffffffffffffffffffffffffffffffffffffff1673ffffffffffffffffffffffffffffffffffffffff168273ffffffffffffffffffffffffffffffffffffffff1614156107885782600460006101000a81548173ffffffffffffffffffffffffffffffffffffffff021916908373ffffffffffffffffffffffffffffffffffffffff1602179055505b5b5b505050565b600160009054906101000a900473ffffffffffffffffffffffffffffffffffffffff1681565b6000809054906101000a900473ffffffffffffffffffffffffffffffffffffffff1681565b6000339050600254421115156107ef57600080fd5b6000809054906101000a900473ffffffffffffffffffffffffffffffffffffffff1673ffffffffffffffffffffffffffffffffffffffff168173ffffffffffffffffffffffffffffffffffffffff1614801561089a5750600073ffffffffffffffffffffffffffffffffffffffff16600360009054906101000a900473ffffffffffffffffffffffffffffffffffffffff1673ffffffffffffffffffffffffffffffffffffffff1614155b8061094d5750600160009054906101000a900473ffffffffffffffffffffffffffffffffffffffff1673ffffffffffffffffffffffffffffffffffffffff168173ffffffffffffffffffffffffffffffffffffffff1614801561094c5750600073ffffffffffffffffffffffffffffffffffffffff16600460009054906101000a900473ffffffffffffffffffffffffffffffffffffffff1673ffffffffffffffffffffffffffffffffffffffff1614155b5b151561095857600080fd5b6000809054906101000a900473ffffffffffffffffffffffffffffffffffffffff1673ffffffffffffffffffffffffffffffffffffffff168173ffffffffffffffffffffffffffffffffffffffff1614156109f4576000600360006101000a81548173ffffffffffffffffffffffffffffffffffffffff021916908373ffffffffffffffffffffffffffffffffffffffff160217905550610a8e565b600160009054906101000a900473ffffffffffffffffffffffffffffffffffffffff1673ffffffffffffffffffffffffffffffffffffffff168173ffffffffffffffffffffffffffffffffffffffff161415610a8d576000600460006101000a81548173ffffffffffffffffffffffffffffffffffffffff021916908373ffffffffffffffffffffffffffffffffffffffff1602179055505b5b505600a165627a7a72305820ced339f39ba72a13e75824846ee71bac9cee3c51a1457988094b94b0902be18a0029",
  "source": "pragma solidity 0.4.24;\n\n// Chest vault accumulates some value, locking it for a 3 months period of time\ncontract ChestVault {\n  // first owner of the vault\n  address public owner1;\n\n  // second owner of the vault\n  address public owner2;\n\n  // a timestamp when the vault unlocks the funds it contains\n  uint256 public unlockTime;\n\n  // when `owner1` calls a `withdraw` this address is set\n  address private to1;\n\n  // when `owner2` calls a `withdraw` this address is set\n  address private to2;\n\n  // logs all the payments received\n  event PaymentReceived(address indexed from, uint256 amount);\n\n  // logs a successful withdrawal\n  event FundsWithdrawn(address indexed to, uint256 amount);\n\n  // A vault is controlled by 2 addresses requiring both 2 votes for consensus\n  constructor(address _owner1, address _owner2) public {\n    // check inputs\n    require(_owner1 != address(0));\n    require(_owner2 != address(0));\n    require(_owner1 != _owner2);\n\n    // setup the vault\n    owner1 = _owner1;\n    owner2 = _owner2;\n    \n    // unlock the vault in 90 days from now\n    unlockTime = now + 90 days;\n  }\n\n  // a function to withdraw funds, available to use only\n  // after 3 months after the deployment of the contract\n  // both owners consensus required\n  function withdraw(address to) public {\n    // input validation\n    require(to != address(0));\n\n    // check sender gracefully – `caller`\n    address caller = msg.sender;\n\n    // how much do we have on the balance\n    uint256 balance = address(this).balance;\n\n    // there should be something to withdraw\n    require(balance > 0);\n\n    // check that 3 months has passed\n    require(now > unlockTime);\n\n    // check the permissions\n    require(caller == owner1 && to != to1 || caller == owner2 && to != to2);\n\n    // we're all set and consensus is reached, proceed with the withdraw\n    if(caller == owner1 && to2 == to || caller == owner2 && to1 == to) {\n      // update state variables first\n      to1 = address(0);\n      to2 = address(0);\n\n      // transfer the funds\n      to.transfer(balance);\n\n      // emit an event\n      emit FundsWithdrawn(to, balance);\n    }\n    // remember call from `owner1`\n    else if(caller == owner1) {\n      // set the `to1`\n      to1 = to;\n    }\n    // or remember call from `owner1`\n    else if(caller == owner2) {\n      // set the `to2`\n      to2 = to;\n    }\n  }\n\n  // revoke the withdraw, cancels pending withdraw request\n  function revoke() public {\n    // check sender gracefully – `caller`\n    address caller = msg.sender;\n\n    // check that 3 months has passed\n    require(now > unlockTime);\n\n    // check the permissions\n    require(caller == owner1 && to1 != address(0) || caller == owner2 && to2 != address(0));\n\n    // revoke – set correspondent address (`to1/to2`) to zero\n    if(caller == owner1) {\n      // set `to1` to zero\n      to1 = address(0);\n    }\n    else if(caller == owner2) {\n      // set `to2` to zero\n      to2 = address(0);\n    }\n  }\n\n  // smart contract accepts payments\n  function() public payable {\n    // only log an event, keep default function simple\n    emit PaymentReceived(msg.sender, msg.value);\n  }\n}\n",
  "sourcePath": "/Users/joshpitzalis/Desktop/auction/contracts/ChestVault.sol",
  "compiler": {
    "name": "solc",
    "version": "0.4.24+commit.e67f0147.Emscripten.clang"
  },
  "schemaVersion": "2.0.0",
  "updatedAt": "2018-08-24T09:28:23.221Z"
}