{
  "contractName": "DutchAuction",
  "abi": [
    {
      "constant": false,
      "inputs": [
        {
          "name": "operator",
          "type": "address"
        },
        {
          "name": "role",
          "type": "uint256"
        }
      ],
      "name": "addOperator",
      "outputs": [],
      "payable": false,
      "stateMutability": "nonpayable",
      "type": "function"
    },
    {
      "constant": true,
      "inputs": [],
      "name": "features",
      "outputs": [
        {
          "name": "",
          "type": "uint256"
        }
      ],
      "payable": false,
      "stateMutability": "view",
      "type": "function"
    },
    {
      "constant": true,
      "inputs": [],
      "name": "tokenInstance",
      "outputs": [
        {
          "name": "",
          "type": "address"
        }
      ],
      "payable": false,
      "stateMutability": "view",
      "type": "function"
    },
    {
      "constant": true,
      "inputs": [
        {
          "name": "",
          "type": "address"
        }
      ],
      "name": "userRoles",
      "outputs": [
        {
          "name": "",
          "type": "uint256"
        }
      ],
      "payable": false,
      "stateMutability": "view",
      "type": "function"
    },
    {
      "constant": false,
      "inputs": [
        {
          "name": "operator",
          "type": "address"
        },
        {
          "name": "role",
          "type": "uint256"
        }
      ],
      "name": "removeRole",
      "outputs": [],
      "payable": false,
      "stateMutability": "nonpayable",
      "type": "function"
    },
    {
      "constant": false,
      "inputs": [
        {
          "name": "operator",
          "type": "address"
        },
        {
          "name": "role",
          "type": "uint256"
        }
      ],
      "name": "addRole",
      "outputs": [],
      "payable": false,
      "stateMutability": "nonpayable",
      "type": "function"
    },
    {
      "constant": false,
      "inputs": [
        {
          "name": "operator",
          "type": "address"
        }
      ],
      "name": "removeOperator",
      "outputs": [],
      "payable": false,
      "stateMutability": "nonpayable",
      "type": "function"
    },
    {
      "constant": true,
      "inputs": [],
      "name": "ROLE_AUCTION_MANAGER",
      "outputs": [
        {
          "name": "",
          "type": "uint32"
        }
      ],
      "payable": false,
      "stateMutability": "view",
      "type": "function"
    },
    {
      "constant": true,
      "inputs": [
        {
          "name": "",
          "type": "uint256"
        }
      ],
      "name": "items",
      "outputs": [
        {
          "name": "t0",
          "type": "uint48"
        },
        {
          "name": "t1",
          "type": "uint48"
        },
        {
          "name": "p0",
          "type": "uint80"
        },
        {
          "name": "p1",
          "type": "uint80"
        }
      ],
      "payable": false,
      "stateMutability": "view",
      "type": "function"
    },
    {
      "constant": false,
      "inputs": [
        {
          "name": "mask",
          "type": "uint256"
        }
      ],
      "name": "updateFeatures",
      "outputs": [],
      "payable": false,
      "stateMutability": "nonpayable",
      "type": "function"
    },
    {
      "inputs": [
        {
          "name": "tokenAddress",
          "type": "address"
        }
      ],
      "payable": false,
      "stateMutability": "nonpayable",
      "type": "constructor"
    },
    {
      "anonymous": false,
      "inputs": [
        {
          "indexed": true,
          "name": "_by",
          "type": "address"
        },
        {
          "indexed": true,
          "name": "tokenId",
          "type": "uint32"
        },
        {
          "indexed": false,
          "name": "t0",
          "type": "uint48"
        },
        {
          "indexed": false,
          "name": "t1",
          "type": "uint48"
        },
        {
          "indexed": false,
          "name": "p0",
          "type": "uint80"
        },
        {
          "indexed": false,
          "name": "p1",
          "type": "uint80"
        },
        {
          "indexed": false,
          "name": "p",
          "type": "uint80"
        }
      ],
      "name": "ItemAdded",
      "type": "event"
    },
    {
      "anonymous": false,
      "inputs": [
        {
          "indexed": true,
          "name": "_by",
          "type": "address"
        },
        {
          "indexed": true,
          "name": "tokenId",
          "type": "uint32"
        }
      ],
      "name": "ItemRemoved",
      "type": "event"
    },
    {
      "anonymous": false,
      "inputs": [
        {
          "indexed": true,
          "name": "_from",
          "type": "address"
        },
        {
          "indexed": true,
          "name": "_to",
          "type": "address"
        },
        {
          "indexed": true,
          "name": "tokenId",
          "type": "uint32"
        },
        {
          "indexed": false,
          "name": "t0",
          "type": "uint48"
        },
        {
          "indexed": false,
          "name": "t1",
          "type": "uint48"
        },
        {
          "indexed": false,
          "name": "p0",
          "type": "uint80"
        },
        {
          "indexed": false,
          "name": "p1",
          "type": "uint80"
        },
        {
          "indexed": false,
          "name": "p",
          "type": "uint80"
        }
      ],
      "name": "ItemBought",
      "type": "event"
    },
    {
      "anonymous": false,
      "inputs": [
        {
          "indexed": true,
          "name": "_by",
          "type": "address"
        },
        {
          "indexed": false,
          "name": "_requested",
          "type": "uint256"
        },
        {
          "indexed": false,
          "name": "_actual",
          "type": "uint256"
        }
      ],
      "name": "FeaturesUpdated",
      "type": "event"
    },
    {
      "anonymous": false,
      "inputs": [
        {
          "indexed": true,
          "name": "_by",
          "type": "address"
        },
        {
          "indexed": true,
          "name": "_to",
          "type": "address"
        },
        {
          "indexed": false,
          "name": "_role",
          "type": "uint256"
        }
      ],
      "name": "RoleUpdated",
      "type": "event"
    },
    {
      "constant": false,
      "inputs": [
        {
          "name": "tokenId",
          "type": "uint32"
        },
        {
          "name": "duration",
          "type": "uint32"
        },
        {
          "name": "p0",
          "type": "uint80"
        },
        {
          "name": "p1",
          "type": "uint80"
        }
      ],
      "name": "add",
      "outputs": [],
      "payable": false,
      "stateMutability": "nonpayable",
      "type": "function"
    },
    {
      "constant": false,
      "inputs": [
        {
          "name": "tokenId",
          "type": "uint32"
        },
        {
          "name": "t0",
          "type": "uint32"
        },
        {
          "name": "t1",
          "type": "uint32"
        },
        {
          "name": "p0",
          "type": "uint80"
        },
        {
          "name": "p1",
          "type": "uint80"
        }
      ],
      "name": "addWith",
      "outputs": [],
      "payable": false,
      "stateMutability": "nonpayable",
      "type": "function"
    },
    {
      "constant": false,
      "inputs": [
        {
          "name": "tokenId",
          "type": "uint32"
        }
      ],
      "name": "remove",
      "outputs": [],
      "payable": false,
      "stateMutability": "nonpayable",
      "type": "function"
    },
    {
      "constant": false,
      "inputs": [
        {
          "name": "tokenId",
          "type": "uint32"
        }
      ],
      "name": "buy",
      "outputs": [],
      "payable": true,
      "stateMutability": "payable",
      "type": "function"
    },
    {
      "constant": true,
      "inputs": [
        {
          "name": "tokenId",
          "type": "uint32"
        }
      ],
      "name": "isTokenOnSale",
      "outputs": [
        {
          "name": "",
          "type": "bool"
        }
      ],
      "payable": false,
      "stateMutability": "view",
      "type": "function"
    },
    {
      "constant": true,
      "inputs": [
        {
          "name": "tokenId",
          "type": "uint32"
        }
      ],
      "name": "getCurrentPrice",
      "outputs": [
        {
          "name": "",
          "type": "uint80"
        }
      ],
      "payable": false,
      "stateMutability": "view",
      "type": "function"
    },
    {
      "constant": true,
      "inputs": [
        {
          "name": "t0",
          "type": "uint48"
        },
        {
          "name": "t1",
          "type": "uint48"
        },
        {
          "name": "p0",
          "type": "uint80"
        },
        {
          "name": "p1",
          "type": "uint80"
        }
      ],
      "name": "priceNow",
      "outputs": [
        {
          "name": "",
          "type": "uint80"
        }
      ],
      "payable": false,
      "stateMutability": "view",
      "type": "function"
    },
    {
      "constant": true,
      "inputs": [
        {
          "name": "_t0",
          "type": "uint48"
        },
        {
          "name": "_t1",
          "type": "uint48"
        },
        {
          "name": "_t",
          "type": "uint48"
        },
        {
          "name": "_p0",
          "type": "uint80"
        },
        {
          "name": "_p1",
          "type": "uint80"
        }
      ],
      "name": "price",
      "outputs": [
        {
          "name": "",
          "type": "uint80"
        }
      ],
      "payable": false,
      "stateMutability": "pure",
      "type": "function"
    }
  ],
  "bytecode": "0x60806040523480156200001157600080fd5b50604051602080620027a2833981018060405281019080805190602001909291905050507fffffffffffffffffffffffffffffffffffffffffffffffffffffffffffffffff600160003373ffffffffffffffffffffffffffffffffffffffff1673ffffffffffffffffffffffffffffffffffffffff16815260200190815260200160002081905550600073ffffffffffffffffffffffffffffffffffffffff168173ffffffffffffffffffffffffffffffffffffffff1614151515620000d657600080fd5b80600260006101000a81548173ffffffffffffffffffffffffffffffffffffffff021916908373ffffffffffffffffffffffffffffffffffffffff160217905550600260009054906101000a900473ffffffffffffffffffffffffffffffffffffffff1673ffffffffffffffffffffffffffffffffffffffff166301ffc9a7806040518263ffffffff167c010000000000000000000000000000000000000000000000000000000002815260040180827c0100000000000000000000000000000000000000000000000000000000027bffffffffffffffffffffffffffffffffffffffffffffffffffffffff19168152602001915050602060405180830381600087803b158015620001e757600080fd5b505af1158015620001fc573d6000803e3d6000fd5b505050506040513d60208110156200021357600080fd5b810190808051906020019092919050505015156200023057600080fd5b600260009054906101000a900473ffffffffffffffffffffffffffffffffffffffff1673ffffffffffffffffffffffffffffffffffffffff166301ffc9a76380ac58cd6040518263ffffffff167c010000000000000000000000000000000000000000000000000000000002815260040180827c0100000000000000000000000000000000000000000000000000000000027bffffffffffffffffffffffffffffffffffffffffffffffffffffffff19168152602001915050602060405180830381600087803b1580156200030457600080fd5b505af115801562000319573d6000803e3d6000fd5b505050506040513d60208110156200033057600080fd5b810190808051906020019092919050505015156200034d57600080fd5b600260009054906101000a900473ffffffffffffffffffffffffffffffffffffffff1673ffffffffffffffffffffffffffffffffffffffff166301ffc9a7634f558e796040518263ffffffff167c010000000000000000000000000000000000000000000000000000000002815260040180827c0100000000000000000000000000000000000000000000000000000000027bffffffffffffffffffffffffffffffffffffffffffffffffffffffff19168152602001915050602060405180830381600087803b1580156200042157600080fd5b505af115801562000436573d6000803e3d6000fd5b505050506040513d60208110156200044d57600080fd5b810190808051906020019092919050505015156200046a57600080fd5b600260009054906101000a900473ffffffffffffffffffffffffffffffffffffffff1673ffffffffffffffffffffffffffffffffffffffff166301ffc9a763780e9d636040518263ffffffff167c010000000000000000000000000000000000000000000000000000000002815260040180827c0100000000000000000000000000000000000000000000000000000000027bffffffffffffffffffffffffffffffffffffffffffffffffffffffff19168152602001915050602060405180830381600087803b1580156200053e57600080fd5b505af115801562000553573d6000803e3d6000fd5b505050506040513d60208110156200056a57600080fd5b810190808051906020019092919050505015156200058757600080fd5b600260009054906101000a900473ffffffffffffffffffffffffffffffffffffffff1673ffffffffffffffffffffffffffffffffffffffff166301ffc9a7635b5e139f6040518263ffffffff167c010000000000000000000000000000000000000000000000000000000002815260040180827c0100000000000000000000000000000000000000000000000000000000027bffffffffffffffffffffffffffffffffffffffffffffffffffffffff19168152602001915050602060405180830381600087803b1580156200065b57600080fd5b505af115801562000670573d6000803e3d6000fd5b505050506040513d60208110156200068757600080fd5b81019080805190602001909291905050501515620006a457600080fd5b506120ed80620006b56000396000f3006080604052600436106100fb576000357c0100000000000000000000000000000000000000000000000000000000900463ffffffff168062d84fd8146101005780630f7fa72f146101335780632b521416146101805780633d8f762d146101ab5780633ea0fb3e1461024a5780634b92c221146102a95780634c21e7f41461035a578063658030b3146103c957806374d5e1001461042057806379db5f67146104775780637db5bd52146104c45780637fde1c8a146104ea578063ac8a584a14610537578063b70cabb41461057a578063bfb231d2146105b1578063c6f7ce1d14610657578063cc1e5804146106d6578063d5bb7f6714610721575b600080fd5b34801561010c57600080fd5b50610131600480360381019080803563ffffffff16906020019092919050505061074e565b005b34801561013f57600080fd5b5061017e600480360381019080803573ffffffffffffffffffffffffffffffffffffffff16906020019092919080359060200190929190505050610a13565b005b34801561018c57600080fd5b50610195610bc8565b6040518082815260200191505060405180910390f35b3480156101b757600080fd5b5061021c600480360381019080803565ffffffffffff169060200190929190803565ffffffffffff169060200190929190803569ffffffffffffffffffff169060200190929190803569ffffffffffffffffffff169060200190929190505050610bce565b604051808269ffffffffffffffffffff1669ffffffffffffffffffff16815260200191505060405180910390f35b34801561025657600080fd5b5061027b600480360381019080803563ffffffff169060200190929190505050610be7565b604051808269ffffffffffffffffffff1669ffffffffffffffffffff16815260200191505060405180910390f35b3480156102b557600080fd5b5061032c600480360381019080803565ffffffffffff169060200190929190803565ffffffffffff169060200190929190803565ffffffffffff169060200190929190803569ffffffffffffffffffff169060200190929190803569ffffffffffffffffffff169060200190929190505050610d79565b604051808269ffffffffffffffffffff1669ffffffffffffffffffff16815260200191505060405180910390f35b34801561036657600080fd5b506103c7600480360381019080803563ffffffff169060200190929190803563ffffffff169060200190929190803569ffffffffffffffffffff169060200190929190803569ffffffffffffffffffff169060200190929190505050610e4c565b005b3480156103d557600080fd5b506103de610e6c565b604051808273ffffffffffffffffffffffffffffffffffffffff1673ffffffffffffffffffffffffffffffffffffffff16815260200191505060405180910390f35b34801561042c57600080fd5b50610461600480360381019080803573ffffffffffffffffffffffffffffffffffffffff169060200190929190505050610e92565b6040518082815260200191505060405180910390f35b34801561048357600080fd5b506104c2600480360381019080803573ffffffffffffffffffffffffffffffffffffffff16906020019092919080359060200190929190505050610eaa565b005b6104e8600480360381019080803563ffffffff16906020019092919050505061103c565b005b3480156104f657600080fd5b50610535600480360381019080803573ffffffffffffffffffffffffffffffffffffffff16906020019092919080359060200190929190505050611576565b005b34801561054357600080fd5b50610578600480360381019080803573ffffffffffffffffffffffffffffffffffffffff169060200190929190505050611735565b005b34801561058657600080fd5b5061058f61190a565b604051808263ffffffff1663ffffffff16815260200191505060405180910390f35b3480156105bd57600080fd5b506105dc6004803603810190808035906020019092919050505061190f565b604051808565ffffffffffff1665ffffffffffff1681526020018465ffffffffffff1665ffffffffffff1681526020018369ffffffffffffffffffff1669ffffffffffffffffffff1681526020018269ffffffffffffffffffff1669ffffffffffffffffffff16815260200194505050505060405180910390f35b34801561066357600080fd5b506106d4600480360381019080803563ffffffff169060200190929190803563ffffffff169060200190929190803563ffffffff169060200190929190803569ffffffffffffffffffff169060200190929190803569ffffffffffffffffffff16906020019092919050505061198f565b005b3480156106e257600080fd5b50610707600480360381019080803563ffffffff169060200190929190505050611e74565b604051808215151515815260200191505060405180910390f35b34801561072d57600080fd5b5061074c60048036038101908080359060200190929190505050611ee6565b005b600080339150600360008463ffffffff16815260200190815260200160002060009054906101000a900473ffffffffffffffffffffffffffffffffffffffff169050600073ffffffffffffffffffffffffffffffffffffffff168173ffffffffffffffffffffffffffffffffffffffff16141515156107cc57600080fd5b8073ffffffffffffffffffffffffffffffffffffffff168273ffffffffffffffffffffffffffffffffffffffff1614806108125750610811600263ffffffff1661200a565b5b151561081d57600080fd5b600260009054906101000a900473ffffffffffffffffffffffffffffffffffffffff1673ffffffffffffffffffffffffffffffffffffffff1663a9059cbb82856040518363ffffffff167c0100000000000000000000000000000000000000000000000000000000028152600401808373ffffffffffffffffffffffffffffffffffffffff1673ffffffffffffffffffffffffffffffffffffffff1681526020018263ffffffff16815260200192505050600060405180830381600087803b1580156108e857600080fd5b505af11580156108fc573d6000803e3d6000fd5b50505050600360008463ffffffff16815260200190815260200160002060006101000a81549073ffffffffffffffffffffffffffffffffffffffff0219169055600460008463ffffffff168152602001908152602001600020600080820160006101000a81549065ffffffffffff02191690556000820160066101000a81549065ffffffffffff021916905560008201600c6101000a81549069ffffffffffffffffffff02191690556000820160166101000a81549069ffffffffffffffffffff021916905550508263ffffffff168273ffffffffffffffffffffffffffffffffffffffff167f2e6d559dd29cba00f080e9e4dab9d1e035a5a29dc97e3b568108ef59064a5c7d60405160405180910390a3505050565b6000806000339250600160008473ffffffffffffffffffffffffffffffffffffffff1673ffffffffffffffffffffffffffffffffffffffff1681526020019081526020016000205491506000600160008773ffffffffffffffffffffffffffffffffffffffff1673ffffffffffffffffffffffffffffffffffffffff16815260200190815260200160002054141515610aab57600080fd5b610ab9826310000000612061565b1515610ac457600080fd5b818416905060008114151515610ad957600080fd5b80600160008773ffffffffffffffffffffffffffffffffffffffff1673ffffffffffffffffffffffffffffffffffffffff168152602001908152602001600020819055508473ffffffffffffffffffffffffffffffffffffffff168373ffffffffffffffffffffffffffffffffffffffff167fde4cd40876c200276a5c070f12c8512913143450b14c88bfaa4245b24a5092af600160008973ffffffffffffffffffffffffffffffffffffffff1673ffffffffffffffffffffffffffffffffffffffff168152602001908152602001600020546040518082815260200191505060405180910390a35050505050565b60005481565b6000610bdd8585428686610d79565b9050949350505050565b6000610bf1612070565b600460008463ffffffff168152602001908152602001600020608060405190810160405290816000820160009054906101000a900465ffffffffffff1665ffffffffffff1665ffffffffffff1681526020016000820160069054906101000a900465ffffffffffff1665ffffffffffff1665ffffffffffff16815260200160008201600c9054906101000a900469ffffffffffffffffffff1669ffffffffffffffffffff1669ffffffffffffffffffff1681526020016000820160169054906101000a900469ffffffffffffffffffff1669ffffffffffffffffffff1669ffffffffffffffffffff16815250509050600073ffffffffffffffffffffffffffffffffffffffff16600360008563ffffffff16815260200190815260200160002060009054906101000a900473ffffffffffffffffffffffffffffffffffffffff1673ffffffffffffffffffffffffffffffffffffffff1614151515610d5557600080fd5b610d718160000151826020015183604001518460600151610bce565b915050919050565b6000806000806000808a65ffffffffffff168965ffffffffffff161015610da257879550610e3e565b8965ffffffffffff168965ffffffffffff161115610dc257869550610e3e565b8a65ffffffffffff1694508965ffffffffffff1693508865ffffffffffff1692508769ffffffffffffffffffff1691508669ffffffffffffffffffff1690508484036fffffffffffffffffffffffffffffffff16818303868503026fffffffffffffffffffffffffffffffff16811515610e3857fe5b04820395505b505050505095945050505050565b6000804291508482019050610e64868383878761198f565b505050505050565b600260009054906101000a900473ffffffffffffffffffffffffffffffffffffffff1681565b60016020528060005260406000206000915090505481565b6000806000339250600160008473ffffffffffffffffffffffffffffffffffffffff1673ffffffffffffffffffffffffffffffffffffffff168152602001908152602001600020549150610f02826310000000612061565b1515610f0d57600080fd5b818416905060008114151515610f2257600080fd5b807fffffffffffffffffffffffffffffffffffffffffffffffffffffffffffffffff18600160008773ffffffffffffffffffffffffffffffffffffffff1673ffffffffffffffffffffffffffffffffffffffff168152602001908152602001600020600082825416925050819055508473ffffffffffffffffffffffffffffffffffffffff168373ffffffffffffffffffffffffffffffffffffffff167fde4cd40876c200276a5c070f12c8512913143450b14c88bfaa4245b24a5092af600160008973ffffffffffffffffffffffffffffffffffffffff1673ffffffffffffffffffffffffffffffffffffffff168152602001908152602001600020546040518082815260200191505060405180910390a35050505050565b600080611047612070565b6000339350600360008663ffffffff16815260200190815260200160002060009054906101000a900473ffffffffffffffffffffffffffffffffffffffff169250600073ffffffffffffffffffffffffffffffffffffffff168373ffffffffffffffffffffffffffffffffffffffff16141515156110c457600080fd5b600460008663ffffffff168152602001908152602001600020608060405190810160405290816000820160009054906101000a900465ffffffffffff1665ffffffffffff1665ffffffffffff1681526020016000820160069054906101000a900465ffffffffffff1665ffffffffffff1665ffffffffffff16815260200160008201600c9054906101000a900469ffffffffffffffffffff1669ffffffffffffffffffff1669ffffffffffffffffffff1681526020016000820160169054906101000a900469ffffffffffffffffffff1669ffffffffffffffffffff1669ffffffffffffffffffff1681525050915042826000015165ffffffffffff16111515156111ce57600080fd5b6111ea8260000151836020015184604001518560600151610bce565b9050348169ffffffffffffffffffff161115151561120757600080fd5b600260009054906101000a900473ffffffffffffffffffffffffffffffffffffffff1673ffffffffffffffffffffffffffffffffffffffff1663a9059cbb85876040518363ffffffff167c0100000000000000000000000000000000000000000000000000000000028152600401808373ffffffffffffffffffffffffffffffffffffffff1673ffffffffffffffffffffffffffffffffffffffff1681526020018263ffffffff16815260200192505050600060405180830381600087803b1580156112d257600080fd5b505af11580156112e6573d6000803e3d6000fd5b50505050600360008663ffffffff16815260200190815260200160002060006101000a81549073ffffffffffffffffffffffffffffffffffffffff0219169055600460008663ffffffff168152602001908152602001600020600080820160006101000a81549065ffffffffffff02191690556000820160066101000a81549065ffffffffffff021916905560008201600c6101000a81549069ffffffffffffffffffff02191690556000820160166101000a81549069ffffffffffffffffffff021916905550508273ffffffffffffffffffffffffffffffffffffffff166108fc8269ffffffffffffffffffff169081150290604051600060405180830381858888f19350505050158015611400573d6000803e3d6000fd5b508069ffffffffffffffffffff1634111561146b578373ffffffffffffffffffffffffffffffffffffffff166108fc8269ffffffffffffffffffff1634039081150290604051600060405180830381858888f19350505050158015611469573d6000803e3d6000fd5b505b8463ffffffff168473ffffffffffffffffffffffffffffffffffffffff168473ffffffffffffffffffffffffffffffffffffffff167f040b0f4b29d71ff6bc213a35835c6a1e09db4117427ee5ce9a15ed1bb25d091b856000015186602001518760400151886060015188604051808665ffffffffffff1665ffffffffffff1681526020018565ffffffffffff1665ffffffffffff1681526020018469ffffffffffffffffffff1669ffffffffffffffffffff1681526020018369ffffffffffffffffffff1669ffffffffffffffffffff1681526020018269ffffffffffffffffffff1669ffffffffffffffffffff1681526020019550505050505060405180910390a45050505050565b6000806000339250600160008473ffffffffffffffffffffffffffffffffffffffff1673ffffffffffffffffffffffffffffffffffffffff1681526020019081526020016000205491506000600160008773ffffffffffffffffffffffffffffffffffffffff1673ffffffffffffffffffffffffffffffffffffffff168152602001908152602001600020541415151561160f57600080fd5b61161d826310000000612061565b151561162857600080fd5b81841690506000811415151561163d57600080fd5b80600160008773ffffffffffffffffffffffffffffffffffffffff1673ffffffffffffffffffffffffffffffffffffffff168152602001908152602001600020600082825417925050819055508473ffffffffffffffffffffffffffffffffffffffff168373ffffffffffffffffffffffffffffffffffffffff167fde4cd40876c200276a5c070f12c8512913143450b14c88bfaa4245b24a5092af600160008973ffffffffffffffffffffffffffffffffffffffff1673ffffffffffffffffffffffffffffffffffffffff168152602001908152602001600020546040518082815260200191505060405180910390a35050505050565b60003390506000600160008473ffffffffffffffffffffffffffffffffffffffff1673ffffffffffffffffffffffffffffffffffffffff168152602001908152602001600020541415151561178957600080fd5b8073ffffffffffffffffffffffffffffffffffffffff168273ffffffffffffffffffffffffffffffffffffffff16141515156117c457600080fd5b611852600160008373ffffffffffffffffffffffffffffffffffffffff1673ffffffffffffffffffffffffffffffffffffffff16815260200190815260200160002054600160008573ffffffffffffffffffffffffffffffffffffffff1673ffffffffffffffffffffffffffffffffffffffff16815260200190815260200160002054631000000017612061565b151561185d57600080fd5b600160008373ffffffffffffffffffffffffffffffffffffffff1673ffffffffffffffffffffffffffffffffffffffff168152602001908152602001600020600090558173ffffffffffffffffffffffffffffffffffffffff168173ffffffffffffffffffffffffffffffffffffffff167fde4cd40876c200276a5c070f12c8512913143450b14c88bfaa4245b24a5092af60006040518082815260200191505060405180910390a35050565b600281565b60046020528060005260406000206000915090508060000160009054906101000a900465ffffffffffff16908060000160069054906101000a900465ffffffffffff169080600001600c9054906101000a900469ffffffffffffffffffff16908060000160169054906101000a900469ffffffffffffffffffff16905084565b6000611999612070565b6000808763ffffffff161115156119af57600080fd5b8663ffffffff168663ffffffff161115156119c957600080fd5b428663ffffffff161115156119dd57600080fd5b8369ffffffffffffffffffff168569ffffffffffffffffffff16111515611a0357600080fd5b600260009054906101000a900473ffffffffffffffffffffffffffffffffffffffff1673ffffffffffffffffffffffffffffffffffffffff16636352211e896040518263ffffffff167c0100000000000000000000000000000000000000000000000000000000028152600401808263ffffffff168152602001915050602060405180830381600087803b158015611a9a57600080fd5b505af1158015611aae573d6000803e3d6000fd5b505050506040513d6020811015611ac457600080fd5b81019080805190602001909291905050509250600260009054906101000a900473ffffffffffffffffffffffffffffffffffffffff1673ffffffffffffffffffffffffffffffffffffffff166323b872dd84308b6040518463ffffffff167c0100000000000000000000000000000000000000000000000000000000028152600401808473ffffffffffffffffffffffffffffffffffffffff1673ffffffffffffffffffffffffffffffffffffffff1681526020018373ffffffffffffffffffffffffffffffffffffffff1673ffffffffffffffffffffffffffffffffffffffff1681526020018263ffffffff1681526020019350505050600060405180830381600087803b158015611bd657600080fd5b505af1158015611bea573d6000803e3d6000fd5b5050505082600360008a63ffffffff16815260200190815260200160002060006101000a81548173ffffffffffffffffffffffffffffffffffffffff021916908373ffffffffffffffffffffffffffffffffffffffff1602179055506080604051908101604052808863ffffffff1665ffffffffffff1681526020018763ffffffff1665ffffffffffff1681526020018669ffffffffffffffffffff1681526020018569ffffffffffffffffffff16815250915081600460008a63ffffffff16815260200190815260200160002060008201518160000160006101000a81548165ffffffffffff021916908365ffffffffffff16021790555060208201518160000160066101000a81548165ffffffffffff021916908365ffffffffffff160217905550604082015181600001600c6101000a81548169ffffffffffffffffffff021916908369ffffffffffffffffffff16021790555060608201518160000160166101000a81548169ffffffffffffffffffff021916908369ffffffffffffffffffff160217905550905050611d8f8763ffffffff168763ffffffff168787610bce565b90508763ffffffff163373ffffffffffffffffffffffffffffffffffffffff167f32e915f35085cc812b5bb02600871ac922c39cd8afc46b026cf4b124071df4e68989898987604051808663ffffffff1665ffffffffffff1681526020018563ffffffff1665ffffffffffff1681526020018469ffffffffffffffffffff1669ffffffffffffffffffff1681526020018369ffffffffffffffffffff1669ffffffffffffffffffff1681526020018269ffffffffffffffffffff1669ffffffffffffffffffff1681526020019550505050505060405180910390a35050505050505050565b60008073ffffffffffffffffffffffffffffffffffffffff16600360008463ffffffff16815260200190815260200160002060009054906101000a900473ffffffffffffffffffffffffffffffffffffffff1673ffffffffffffffffffffffffffffffffffffffff1614159050919050565b600080339150600160008373ffffffffffffffffffffffffffffffffffffffff1673ffffffffffffffffffffffffffffffffffffffff168152602001908152602001600020549050611f3c816320000000612061565b1515611f4757600080fd5b8281166000808282541792505081905550827fffffffffffffffffffffffffffffffffffffffffffffffffffffffffffffffff1881167fffffffffffffffffffffffffffffffffffffffffffffffffffffffffffffffff1860008082825416925050819055508173ffffffffffffffffffffffffffffffffffffffff167fd7561eaef77f105dc0c307bfb23c571f603f07bb7db5766a68840742fde80b8984600054604051808381526020018281526020019250505060405180910390a2505050565b600080600160003373ffffffffffffffffffffffffffffffffffffffff1673ffffffffffffffffffffffffffffffffffffffff1681526020019081526020016000205490506120598184612061565b915050919050565b60008182841614905092915050565b608060405190810160405280600065ffffffffffff168152602001600065ffffffffffff168152602001600069ffffffffffffffffffff168152602001600069ffffffffffffffffffff16815250905600a165627a7a723058201ec442f9ae22d829db0ae865f3ad701ecc8eeb2610d28984f27767bdfbc753020029",
  "source": "pragma solidity 0.4.24;\n\nimport \"./AccessControl.sol\";\nimport \"./GemERC721.sol\";\n\n/**\n * @notice Dutch auction represents a method of selling\n *      in which the price is reduced until a buyer is found\n *      or sale time has ended (item expired for sale).\n * @dev This implementation supports up to 65535 items listed for sale.\n * @dev For each item on sale the following parameters are defined:\n *      * sale start time - t0\n *      * sale start price - p0\n *      * sale end time - t1\n *      * sale end price - p1\n *      * item ID (ERC721 token ID)\n * @dev Current price `p` of each item is calculated linearly based\n *      on the sale parameters:\n *      `p = p0 - (now - t0) * (p0 - p1) / (t1 - t0)\n * @dev Following constraints when adding item for sale must be met:\n *      * t1 > t0: sale starts before it ends\n *      * p0 > p1: start price is higher then end price\n * @dev Following constraints when buying item on sale must be met:\n *      * now < t1: item has not expired\n *      * msg.value >= p: price constraint\n * @dev This implementation operates with a GemERC721 token as an item:\n *      token ID space is expected to be uint32\n */\ncontract DutchAuction is AccessControl {\n\n  /// @dev Base structure representing an item for sale on the auction\n  /// @dev 256 bits structure, occupies exactly one memory slot\n  struct Item {\n    // sale start time, seconds\n    uint48 t0;\n    // sale end time, seconds\n    uint48 t1;\n    // sale start price, wei, cannot exceed 10^6 ETH\n    uint80 p0;\n    // sale end price, wei, cannot exceed 10^6 ETH\n    uint80 p1;\n  }\n  \n  /// @notice Auction manager is responsible for removing items\n  /// @dev Role ROLE_AUCTION_MANAGER allows executing removeItem\n  uint32 public constant ROLE_AUCTION_MANAGER = 0x00000002;\n\n  /// @dev This auction operates on GemERC721 instances\n  GemERC721 public tokenInstance;\n\n  /// @dev Auxiliary data structure to keep track of previous item owners\n  /// @dev Used to be able to return items back to owners\n  mapping(uint256 => address) owners;\n\n  /// @notice All the items available for sale with their sale parameters\n  /// @dev Includes both expired and available items\n  mapping(uint256 => Item) public items;\n\n  /// @dev Fired in addItem()\n  event ItemAdded(\n    // who added this item for sale by calling addItem()\n    address indexed _by,\n    // rest of the values correspond to addItem() signature and Item structure\n    uint32 indexed tokenId,\n    uint48 t0, // seconds\n    uint48 t1, // seconds\n    uint80 p0, // wei\n    uint80 p1, // wei\n    uint80 p   // current price in wei\n  );\n\n  /// @dev Fired in removeItem()\n  event ItemRemoved(\n    // auction manager who sent a transaction (ROLE_AUCTION_MANAGER)\n    address indexed _by,\n    // unique item ID (token ID)\n    uint32 indexed tokenId\n  );\n\n  /// @dev Fired in buyItem()\n  event ItemBought(\n    // previous item owner\n    address indexed _from,\n    // new item owner\n    address indexed _to,\n    // rest of the values correspond to addItem() signature and Item structure\n    uint32 indexed tokenId,\n    uint48 t0, // seconds\n    uint48 t1, // seconds\n    uint80 p0, // wei\n    uint80 p1, // wei\n    uint80 p   // current price in wei\n  );\n\n  /**\n   * @dev Creates a dutch auction instance operating on GemERC721 tokens\n   *      defined by the `tokenAddress` specified\n   * @param tokenAddress deployed GemERC721 instance address\n   */\n  constructor(address tokenAddress) public {\n    // check that we didn't forget to pass an address\n    require(tokenAddress != address(0));\n\n    // bind token instance to the address specified\n    tokenInstance = GemERC721(tokenAddress);\n\n    // validate GemERC721 instance by requiring all supported interfaces\n    require(tokenInstance.supportsInterface(0x01ffc9a7)); // ERC165\n    require(tokenInstance.supportsInterface(0x80ac58cd)); // ERC721\n    require(tokenInstance.supportsInterface(0x4f558e79)); // ERC721 exists\n    require(tokenInstance.supportsInterface(0x780e9d63)); // ERC721 enumerable\n    require(tokenInstance.supportsInterface(0x5b5e139f)); // ERC721 metadata\n  }\n\n  /**\n   * @dev Adds an item to the auction, starting right now.\n   * @dev Requires an item to be transferred on behalf of its owner.\n   * @param tokenId token ID for sale\n   * @param duration duration of the auction in seconds\n   * @param p0 sale start price\n   * @param p1 sale end price\n   */\n  function add(uint32 tokenId, uint32 duration, uint80 p0, uint80 p1) public {\n    // derive missing parameters for `addWith`\n\n    // t0 is now\n    uint32 t0 = uint32(now);\n\n    // t1 is t0 plus duration\n    uint32 t1 = t0 + duration;\n\n    // delegate call to `addWith`\n    addWith(tokenId, t0, t1, p0, p1);\n  }\n\n  /**\n   * @dev Adds an item to the auction. Allows to set auction start time.\n   * @dev Requires an item to be transferred on behalf of its owner.\n   * @param tokenId token ID for sale\n   * @param t0 sale start time\n   * @param t1 sale end time\n   * @param p0 sale start price\n   * @param p1 sale end price\n   */\n  function addWith(uint32 tokenId, uint32 t0, uint32 t1, uint80 p0, uint80 p1) public {\n    // validate sale parameters:\n    // make sure caller didn't forget to set t0\n    require(t0 > 0);\n    // make sure t1 > t0 constraint is satisfied\n    require(t1 > t0);\n    // make sure we're no adding an already expired sale\n    require(t1 > now);\n    // p0 can be potentially zero\n    // make sure p0 > p1 constraint is satisfied\n    require(p0 > p1);\n\n    // determine who is current owner of the token\n    address tokenOwner = tokenInstance.ownerOf(tokenId);\n\n    // take the token away from the owner here, to an auction smart contract\n    tokenInstance.transferFrom(tokenOwner, address(this), tokenId);\n\n    // save previous owner of the token\n    owners[tokenId] = tokenOwner;\n\n    // create item sale parameters structure\n    Item memory item = Item(t0, t1, p0, p1);\n\n    // save newly created structure\n    items[tokenId] = item;\n\n    // current price\n    uint80 p = priceNow(t0, t1, p0, p1);\n\n    // emit an event\n    emit ItemAdded(msg.sender, tokenId, t0, t1, p0, p1, p);\n  }\n\n  /**\n   * @dev Removes an item from the auction.\n   * @dev Requires sender to be previous owner of the item\n   *      or to have `ROLE_AUCTION_MANAGER` permission.\n   * @param tokenId unique ID of the item, previously generated when item was added\n   */\n  function remove(uint32 tokenId) public {\n    // call sender gracefully - operator\n    address operator = msg.sender;\n\n    // get previous token owner\n    address owner = owners[tokenId];\n\n    // check that previous owner is not zero (item is on sale)\n    require(owner != address(0));\n\n    // check transaction sender is previous owner or has appropriate permissions to remove item from sale\n    require(operator == owner || __isSenderInRole(ROLE_AUCTION_MANAGER));\n\n    // transfer item back to owner\n    tokenInstance.transfer(owner, tokenId);\n\n    // remove from previous owners mapping\n    delete owners[tokenId];\n\n    // remove item on sale properties\n    delete items[tokenId];\n\n    // emit an event\n    emit ItemRemoved(operator, tokenId);\n  }\n\n  /**\n   * @notice Allows to buy an item listed for sale.\n   * @notice Requires that the sale for that item is not expired\n   *      and that enough value is sent to the function\n   * @dev Requires now < t1\n   * @dev Requires msg.value >= p\n   * @param tokenId unique ID of the item on sale (token ID)\n   */\n  function buy(uint32 tokenId) public payable {\n    // call sender gracefully - buyer\n    address buyer = msg.sender;\n\n    // find previous owner of the item - seller\n    address seller = owners[tokenId];\n\n    // verify that previous owner exists\n    require(seller != address(0));\n\n    // get the item for sale data\n    Item memory item = items[tokenId];\n    \n    // check that the sale has already started\n    require(item.t0 <= now);\n\n    // calculate current item price\n    uint80 p = priceNow(item.t0, item.t1, item.p0, item.p1);\n\n    // check that we have enough value to buy an item\n    require(p <= msg.value);\n\n    // transfer the item to the buyer\n    tokenInstance.transfer(buyer, tokenId);\n\n    // remove from previous owners mapping\n    delete owners[tokenId];\n\n    // remove item on sale properties\n    delete items[tokenId];\n\n    // transfer value to the seller\n    seller.transfer(p);\n\n    // if the incoming value is too big\n    if(msg.value > p) {\n      // transfer change back to buyer\n      buyer.transfer(msg.value - p);\n    }\n\n    // emit an event\n    emit ItemBought(seller, buyer, tokenId, item.t0, item.t1, item.p0, item.p1, p);\n  }\n\n  /**\n   * @dev Checks if the item specified is listed for sale\n   * @param tokenId id of the item\n   * @return true of the item defined by its tokenId is for sale\n   */\n  function isTokenOnSale(uint32 tokenId) constant public returns(bool) {\n    // check if token exists by checking its previous owner\n    return owners[tokenId] != address(0);\n  }\n\n  /**\n   * @dev Calculates current auction price for the item specified.\n   * @dev Doesn't check the `_t0 < _t1` and `_p0 > _p1` constraints.\n   *      It is in caller responsibility to ensure them otherwise result is not correct.\n   * @param tokenId ID of item to query price for\n   * @return current item price (at the time `now`)\n   */\n  function getCurrentPrice(uint32 tokenId) public constant returns(uint80) {\n    // get the item for sale data\n    Item memory item = items[tokenId];\n\n    // check that the item is listed for sale\n    require(owners[tokenId] != address(0));\n\n    // calculate current item price by delegating to `priceNow` and return\n    return priceNow(item.t0, item.t1, item.p0, item.p1);\n  }\n\n  /**\n   * @dev Calculates current auction price for the sale parameters given.\n   * @dev Doesn't check the `_t0 < _t1` and `_p0 > _p1` constraints.\n   *      It is in caller responsibility to ensure them otherwise result is not correct.\n   * @param t0 auction start time\n   * @param t1 auction end time\n   * @param p0 initial price\n   * @param p1 final price\n   * @return price in time `now` according to formula `p = p0 - (now - t0) * (p0 - p1) / (t1 - t0)`\n   */\n  function priceNow(uint48 t0, uint48 t1, uint80 p0, uint80 p1) public constant returns(uint80) {\n    // delegate call to `p`\n    return price(t0, t1, uint48(now), p0, p1);\n  }\n\n  /**\n   * @dev Calculates auction price in the given moment for the sale parameters given.\n   * @dev Doesn't check the `_t0 < _t1` and `_p0 > _p1` constraints.\n   *      It is in caller responsibility to ensure them otherwise result is not correct.\n   * @param _t0 auction start time\n   * @param _t1 auction end time\n   * @param _t time of interest / time to query the price for\n   * @param _p0 initial price\n   * @param _p1 final price\n   * @return price in time `t` according to formula `p = p0 - (t - t0) * (p0 - p1) / (t1 - t0)`\n   */\n  function price(uint48 _t0, uint48 _t1, uint48 _t, uint80 _p0, uint80 _p1) public pure returns(uint80) {\n    // if current time `t` is lower then start time `t0`\n    if(_t < _t0) {\n      // return initial price `p0`\n      return _p0;\n    }\n    // if current time `t` is greater then end time `t1`\n    if(_t > _t1) {\n      // return the final price `p0`\n      return _p1;\n    }\n\n    // otherwise calculate the price\n\n    // convert all numbers into uint128 to get rid of possible arithmetic overflow\n    uint128 t0 = uint128(_t0);\n    uint128 t1 = uint128(_t1);\n    uint128 t = uint128(_t);\n    uint128 p0 = uint128(_p0);\n    uint128 p1 = uint128(_p1);\n\n    // apply formula and return\n    return uint80(p0 - (t - t0) * (p0 - p1) / (t1 - t0));\n  }\n\n}\n",
  "sourcePath": "/Users/joshpitzalis/Desktop/auction/contracts/DutchAuction.sol",
  "compiler": {
    "name": "solc",
    "version": "0.4.24+commit.e67f0147.Emscripten.clang"
  },
  "schemaVersion": "2.0.0",
  "updatedAt": "2018-08-24T09:28:23.222Z"
}