{
  "contractName": "ERC165",
  "abi": [
    {
      "constant": true,
      "inputs": [],
      "name": "InterfaceId_ERC165",
      "outputs": [
        {
          "name": "",
          "type": "bytes4"
        }
      ],
      "payable": false,
      "stateMutability": "view",
      "type": "function"
    },
    {
      "inputs": [],
      "payable": false,
      "stateMutability": "nonpayable",
      "type": "constructor"
    },
    {
      "constant": true,
      "inputs": [
        {
          "name": "_interfaceId",
          "type": "bytes4"
        }
      ],
      "name": "supportsInterface",
      "outputs": [
        {
          "name": "",
          "type": "bool"
        }
      ],
      "payable": false,
      "stateMutability": "view",
      "type": "function"
    }
  ],
  "bytecode": "0x608060405234801561001057600080fd5b5061004c6301ffc9a77c010000000000000000000000000000000000000000000000000000000002610051640100000000026401000000009004565b61010e565b63ffffffff7c010000000000000000000000000000000000000000000000000000000002817bffffffffffffffffffffffffffffffffffffffffffffffffffffffff1916141515156100a257600080fd5b6001600080837bffffffffffffffffffffffffffffffffffffffffffffffffffffffff19167bffffffffffffffffffffffffffffffffffffffffffffffffffffffff1916815260200190815260200160002060006101000a81548160ff02191690831515021790555050565b6101d88061011d6000396000f30060806040526004361061004c576000357c0100000000000000000000000000000000000000000000000000000000900463ffffffff16806301ffc9a71461005157806319fa8f50146100b5575b600080fd5b34801561005d57600080fd5b5061009b60048036038101908080357bffffffffffffffffffffffffffffffffffffffffffffffffffffffff1916906020019092919050505061011e565b604051808215151515815260200191505060405180910390f35b3480156100c157600080fd5b506100ca610185565b60405180827bffffffffffffffffffffffffffffffffffffffffffffffffffffffff19167bffffffffffffffffffffffffffffffffffffffffffffffffffffffff1916815260200191505060405180910390f35b6000806000837bffffffffffffffffffffffffffffffffffffffffffffffffffffffff19167bffffffffffffffffffffffffffffffffffffffffffffffffffffffff1916815260200190815260200160002060009054906101000a900460ff169050919050565b6301ffc9a77c010000000000000000000000000000000000000000000000000000000002815600a165627a7a723058209842715feb310c8abaaf590f7dc5939b61a0f2bbd50cad2a57001e9c405c8b120029",
  "source": "pragma solidity 0.4.24;\n\n/**\n * @title ERC165\n * @dev https://github.com/ethereum/EIPs/blob/master/EIPS/eip-165.md\n */\ncontract ERC165 {\n  /**\n   * 0x01ffc9a7 == bytes4(keccak256('supportsInterface(bytes4)'))\n   */\n  bytes4 public constant InterfaceId_ERC165 = 0x01ffc9a7;\n\n  /**\n   * @dev a mapping of interface id to whether or not it's supported\n   */\n  mapping(bytes4 => bool) internal supportedInterfaces;\n\n  /**\n   * @dev A contract implementing SupportsInterfaceWithLookup\n   * implement ERC165 itself\n   */\n  constructor() public {\n    // register itself in a lookup table\n    _registerInterface(InterfaceId_ERC165);\n  }\n\n\n\n  /**\n   * @notice Query if a contract implements an interface\n   * @param _interfaceId The interface identifier, as specified in ERC-165\n   * @dev Interface identification is specified in ERC-165.\n   * @dev This function uses less than 30,000 gas.\n   */\n  function supportsInterface(bytes4 _interfaceId) public constant returns (bool) {\n    // find if interface is supported using a lookup table\n    return supportedInterfaces[_interfaceId];\n  }\n\n  /**\n   * @dev private method for registering an interface\n   */\n  function _registerInterface(bytes4 _interfaceId) internal {\n    require(_interfaceId != 0xffffffff);\n    supportedInterfaces[_interfaceId] = true;\n  }\n}\n",
  "sourcePath": "/Users/joshpitzalis/Desktop/auction/contracts/ERC165.sol",
  "compiler": {
    "name": "solc",
    "version": "0.4.24+commit.e67f0147.Emscripten.clang"
  },
  "schemaVersion": "2.0.0",
  "updatedAt": "2018-08-24T09:28:23.229Z"
}