{
  "contractName": "GemERC721",
  "abi": [
    {
      "constant": true,
      "inputs": [
        {
          "name": "_interfaceId",
          "type": "bytes4"
        }
      ],
      "name": "supportsInterface",
      "outputs": [
        {
          "name": "",
          "type": "bool"
        }
      ],
      "payable": false,
      "stateMutability": "view",
      "type": "function"
    },
    {
      "constant": true,
      "inputs": [],
      "name": "ROLE_GRADE_PROVIDER",
      "outputs": [
        {
          "name": "",
          "type": "uint32"
        }
      ],
      "payable": false,
      "stateMutability": "view",
      "type": "function"
    },
    {
      "constant": true,
      "inputs": [],
      "name": "name",
      "outputs": [
        {
          "name": "",
          "type": "string"
        }
      ],
      "payable": false,
      "stateMutability": "view",
      "type": "function"
    },
    {
      "constant": false,
      "inputs": [
        {
          "name": "operator",
          "type": "address"
        },
        {
          "name": "role",
          "type": "uint256"
        }
      ],
      "name": "addOperator",
      "outputs": [],
      "payable": false,
      "stateMutability": "nonpayable",
      "type": "function"
    },
    {
      "constant": true,
      "inputs": [],
      "name": "ROLE_STATE_LOCK_PROVIDER",
      "outputs": [
        {
          "name": "",
          "type": "uint32"
        }
      ],
      "payable": false,
      "stateMutability": "view",
      "type": "function"
    },
    {
      "constant": true,
      "inputs": [],
      "name": "InterfaceId_ERC165",
      "outputs": [
        {
          "name": "",
          "type": "bytes4"
        }
      ],
      "payable": false,
      "stateMutability": "view",
      "type": "function"
    },
    {
      "constant": true,
      "inputs": [],
      "name": "features",
      "outputs": [
        {
          "name": "",
          "type": "uint256"
        }
      ],
      "payable": false,
      "stateMutability": "view",
      "type": "function"
    },
    {
      "constant": true,
      "inputs": [],
      "name": "decimals",
      "outputs": [
        {
          "name": "",
          "type": "uint8"
        }
      ],
      "payable": false,
      "stateMutability": "view",
      "type": "function"
    },
    {
      "constant": true,
      "inputs": [],
      "name": "TOKEN_VERSION",
      "outputs": [
        {
          "name": "",
          "type": "uint32"
        }
      ],
      "payable": false,
      "stateMutability": "view",
      "type": "function"
    },
    {
      "constant": true,
      "inputs": [
        {
          "name": "",
          "type": "address"
        },
        {
          "name": "",
          "type": "address"
        }
      ],
      "name": "approvedOperators",
      "outputs": [
        {
          "name": "",
          "type": "bool"
        }
      ],
      "payable": false,
      "stateMutability": "view",
      "type": "function"
    },
    {
      "constant": true,
      "inputs": [],
      "name": "lockedBitmask",
      "outputs": [
        {
          "name": "",
          "type": "uint64"
        }
      ],
      "payable": false,
      "stateMutability": "view",
      "type": "function"
    },
    {
      "constant": true,
      "inputs": [
        {
          "name": "",
          "type": "address"
        },
        {
          "name": "",
          "type": "uint256"
        }
      ],
      "name": "collections",
      "outputs": [
        {
          "name": "",
          "type": "uint32"
        }
      ],
      "payable": false,
      "stateMutability": "view",
      "type": "function"
    },
    {
      "constant": true,
      "inputs": [
        {
          "name": "",
          "type": "uint256"
        }
      ],
      "name": "approvals",
      "outputs": [
        {
          "name": "",
          "type": "address"
        }
      ],
      "payable": false,
      "stateMutability": "view",
      "type": "function"
    },
    {
      "constant": true,
      "inputs": [
        {
          "name": "",
          "type": "uint256"
        }
      ],
      "name": "allTokens",
      "outputs": [
        {
          "name": "",
          "type": "uint32"
        }
      ],
      "payable": false,
      "stateMutability": "view",
      "type": "function"
    },
    {
      "constant": true,
      "inputs": [
        {
          "name": "",
          "type": "address"
        }
      ],
      "name": "userRoles",
      "outputs": [
        {
          "name": "",
          "type": "uint256"
        }
      ],
      "payable": false,
      "stateMutability": "view",
      "type": "function"
    },
    {
      "constant": true,
      "inputs": [],
      "name": "DEFAULT_MINING_BIT",
      "outputs": [
        {
          "name": "",
          "type": "uint64"
        }
      ],
      "payable": false,
      "stateMutability": "view",
      "type": "function"
    },
    {
      "constant": false,
      "inputs": [
        {
          "name": "operator",
          "type": "address"
        },
        {
          "name": "role",
          "type": "uint256"
        }
      ],
      "name": "removeRole",
      "outputs": [],
      "payable": false,
      "stateMutability": "nonpayable",
      "type": "function"
    },
    {
      "constant": false,
      "inputs": [
        {
          "name": "operator",
          "type": "address"
        },
        {
          "name": "role",
          "type": "uint256"
        }
      ],
      "name": "addRole",
      "outputs": [],
      "payable": false,
      "stateMutability": "nonpayable",
      "type": "function"
    },
    {
      "constant": true,
      "inputs": [],
      "name": "ROLE_STATE_PROVIDER",
      "outputs": [
        {
          "name": "",
          "type": "uint32"
        }
      ],
      "payable": false,
      "stateMutability": "view",
      "type": "function"
    },
    {
      "constant": true,
      "inputs": [],
      "name": "ROLE_LEVEL_PROVIDER",
      "outputs": [
        {
          "name": "",
          "type": "uint32"
        }
      ],
      "payable": false,
      "stateMutability": "view",
      "type": "function"
    },
    {
      "constant": true,
      "inputs": [],
      "name": "ROLE_TOKEN_CREATOR",
      "outputs": [
        {
          "name": "",
          "type": "uint32"
        }
      ],
      "payable": false,
      "stateMutability": "view",
      "type": "function"
    },
    {
      "constant": true,
      "inputs": [],
      "name": "FEATURE_TRANSFERS_ON_BEHALF",
      "outputs": [
        {
          "name": "",
          "type": "uint32"
        }
      ],
      "payable": false,
      "stateMutability": "view",
      "type": "function"
    },
    {
      "constant": true,
      "inputs": [],
      "name": "symbol",
      "outputs": [
        {
          "name": "",
          "type": "string"
        }
      ],
      "payable": false,
      "stateMutability": "view",
      "type": "function"
    },
    {
      "constant": true,
      "inputs": [
        {
          "name": "",
          "type": "uint256"
        }
      ],
      "name": "gems",
      "outputs": [
        {
          "name": "coordinates",
          "type": "uint64"
        },
        {
          "name": "color",
          "type": "uint8"
        },
        {
          "name": "levelModified",
          "type": "uint32"
        },
        {
          "name": "level",
          "type": "uint8"
        },
        {
          "name": "gradeModified",
          "type": "uint32"
        },
        {
          "name": "grade",
          "type": "uint32"
        },
        {
          "name": "stateModified",
          "type": "uint32"
        },
        {
          "name": "state",
          "type": "uint48"
        },
        {
          "name": "creationTime",
          "type": "uint32"
        },
        {
          "name": "index",
          "type": "uint32"
        },
        {
          "name": "ownershipModified",
          "type": "uint32"
        },
        {
          "name": "owner",
          "type": "address"
        }
      ],
      "payable": false,
      "stateMutability": "view",
      "type": "function"
    },
    {
      "constant": false,
      "inputs": [
        {
          "name": "operator",
          "type": "address"
        }
      ],
      "name": "removeOperator",
      "outputs": [],
      "payable": false,
      "stateMutability": "nonpayable",
      "type": "function"
    },
    {
      "constant": true,
      "inputs": [],
      "name": "FEATURE_TRANSFERS",
      "outputs": [
        {
          "name": "",
          "type": "uint32"
        }
      ],
      "payable": false,
      "stateMutability": "view",
      "type": "function"
    },
    {
      "constant": false,
      "inputs": [
        {
          "name": "mask",
          "type": "uint256"
        }
      ],
      "name": "updateFeatures",
      "outputs": [],
      "payable": false,
      "stateMutability": "nonpayable",
      "type": "function"
    },
    {
      "inputs": [],
      "payable": false,
      "stateMutability": "nonpayable",
      "type": "constructor"
    },
    {
      "anonymous": false,
      "inputs": [
        {
          "indexed": true,
          "name": "_by",
          "type": "address"
        },
        {
          "indexed": true,
          "name": "_to",
          "type": "address"
        },
        {
          "indexed": true,
          "name": "_tokenId",
          "type": "uint32"
        }
      ],
      "name": "Minted",
      "type": "event"
    },
    {
      "anonymous": false,
      "inputs": [
        {
          "indexed": true,
          "name": "_from",
          "type": "address"
        },
        {
          "indexed": true,
          "name": "_to",
          "type": "address"
        },
        {
          "indexed": true,
          "name": "_tokenId",
          "type": "uint256"
        },
        {
          "indexed": false,
          "name": "_value",
          "type": "uint256"
        }
      ],
      "name": "Transfer",
      "type": "event"
    },
    {
      "anonymous": false,
      "inputs": [
        {
          "indexed": true,
          "name": "_owner",
          "type": "address"
        },
        {
          "indexed": true,
          "name": "_approved",
          "type": "address"
        },
        {
          "indexed": true,
          "name": "_tokenId",
          "type": "uint256"
        }
      ],
      "name": "Approval",
      "type": "event"
    },
    {
      "anonymous": false,
      "inputs": [
        {
          "indexed": true,
          "name": "_owner",
          "type": "address"
        },
        {
          "indexed": true,
          "name": "_operator",
          "type": "address"
        },
        {
          "indexed": false,
          "name": "_value",
          "type": "bool"
        }
      ],
      "name": "ApprovalForAll",
      "type": "event"
    },
    {
      "anonymous": false,
      "inputs": [
        {
          "indexed": true,
          "name": "_by",
          "type": "address"
        },
        {
          "indexed": true,
          "name": "_owner",
          "type": "address"
        },
        {
          "indexed": true,
          "name": "_tokenId",
          "type": "uint256"
        },
        {
          "indexed": false,
          "name": "_levelReached",
          "type": "uint8"
        }
      ],
      "name": "LevelUp",
      "type": "event"
    },
    {
      "anonymous": false,
      "inputs": [
        {
          "indexed": true,
          "name": "_by",
          "type": "address"
        },
        {
          "indexed": true,
          "name": "_owner",
          "type": "address"
        },
        {
          "indexed": true,
          "name": "_tokenId",
          "type": "uint256"
        },
        {
          "indexed": false,
          "name": "_gradeFrom",
          "type": "uint32"
        },
        {
          "indexed": false,
          "name": "_gradeTo",
          "type": "uint32"
        }
      ],
      "name": "UpgradeComplete",
      "type": "event"
    },
    {
      "anonymous": false,
      "inputs": [
        {
          "indexed": true,
          "name": "_by",
          "type": "address"
        },
        {
          "indexed": true,
          "name": "_owner",
          "type": "address"
        },
        {
          "indexed": true,
          "name": "_tokenId",
          "type": "uint256"
        },
        {
          "indexed": false,
          "name": "_stateFrom",
          "type": "uint48"
        },
        {
          "indexed": false,
          "name": "_stateTo",
          "type": "uint48"
        }
      ],
      "name": "StateModified",
      "type": "event"
    },
    {
      "anonymous": false,
      "inputs": [
        {
          "indexed": true,
          "name": "_by",
          "type": "address"
        },
        {
          "indexed": false,
          "name": "_requested",
          "type": "uint256"
        },
        {
          "indexed": false,
          "name": "_actual",
          "type": "uint256"
        }
      ],
      "name": "FeaturesUpdated",
      "type": "event"
    },
    {
      "anonymous": false,
      "inputs": [
        {
          "indexed": true,
          "name": "_by",
          "type": "address"
        },
        {
          "indexed": true,
          "name": "_to",
          "type": "address"
        },
        {
          "indexed": false,
          "name": "_role",
          "type": "uint256"
        }
      ],
      "name": "RoleUpdated",
      "type": "event"
    },
    {
      "constant": true,
      "inputs": [
        {
          "name": "_tokenId",
          "type": "uint256"
        }
      ],
      "name": "getPacked",
      "outputs": [
        {
          "name": "",
          "type": "uint256"
        },
        {
          "name": "",
          "type": "uint256"
        }
      ],
      "payable": false,
      "stateMutability": "view",
      "type": "function"
    },
    {
      "constant": true,
      "inputs": [
        {
          "name": "owner",
          "type": "address"
        }
      ],
      "name": "getPackedCollection",
      "outputs": [
        {
          "name": "",
          "type": "uint80[]"
        }
      ],
      "payable": false,
      "stateMutability": "view",
      "type": "function"
    },
    {
      "constant": true,
      "inputs": [
        {
          "name": "owner",
          "type": "address"
        }
      ],
      "name": "getCollection",
      "outputs": [
        {
          "name": "",
          "type": "uint32[]"
        }
      ],
      "payable": false,
      "stateMutability": "view",
      "type": "function"
    },
    {
      "constant": false,
      "inputs": [
        {
          "name": "bitmask",
          "type": "uint64"
        }
      ],
      "name": "setLockedBitmask",
      "outputs": [],
      "payable": false,
      "stateMutability": "nonpayable",
      "type": "function"
    },
    {
      "constant": true,
      "inputs": [
        {
          "name": "_tokenId",
          "type": "uint256"
        }
      ],
      "name": "getCoordinates",
      "outputs": [
        {
          "name": "",
          "type": "uint64"
        }
      ],
      "payable": false,
      "stateMutability": "view",
      "type": "function"
    },
    {
      "constant": true,
      "inputs": [
        {
          "name": "_tokenId",
          "type": "uint256"
        }
      ],
      "name": "getPlotId",
      "outputs": [
        {
          "name": "",
          "type": "uint32"
        }
      ],
      "payable": false,
      "stateMutability": "view",
      "type": "function"
    },
    {
      "constant": true,
      "inputs": [
        {
          "name": "_tokenId",
          "type": "uint256"
        }
      ],
      "name": "getDepth",
      "outputs": [
        {
          "name": "",
          "type": "uint16"
        }
      ],
      "payable": false,
      "stateMutability": "view",
      "type": "function"
    },
    {
      "constant": true,
      "inputs": [
        {
          "name": "_tokenId",
          "type": "uint256"
        }
      ],
      "name": "getGemNum",
      "outputs": [
        {
          "name": "",
          "type": "uint16"
        }
      ],
      "payable": false,
      "stateMutability": "view",
      "type": "function"
    },
    {
      "constant": true,
      "inputs": [
        {
          "name": "_tokenId",
          "type": "uint256"
        }
      ],
      "name": "getProperties",
      "outputs": [
        {
          "name": "",
          "type": "uint48"
        }
      ],
      "payable": false,
      "stateMutability": "view",
      "type": "function"
    },
    {
      "constant": true,
      "inputs": [
        {
          "name": "_tokenId",
          "type": "uint256"
        }
      ],
      "name": "getColor",
      "outputs": [
        {
          "name": "",
          "type": "uint8"
        }
      ],
      "payable": false,
      "stateMutability": "view",
      "type": "function"
    },
    {
      "constant": true,
      "inputs": [
        {
          "name": "_tokenId",
          "type": "uint256"
        }
      ],
      "name": "getLevelModified",
      "outputs": [
        {
          "name": "",
          "type": "uint32"
        }
      ],
      "payable": false,
      "stateMutability": "view",
      "type": "function"
    },
    {
      "constant": true,
      "inputs": [
        {
          "name": "_tokenId",
          "type": "uint256"
        }
      ],
      "name": "getLevel",
      "outputs": [
        {
          "name": "",
          "type": "uint8"
        }
      ],
      "payable": false,
      "stateMutability": "view",
      "type": "function"
    },
    {
      "constant": false,
      "inputs": [
        {
          "name": "_tokenId",
          "type": "uint256"
        }
      ],
      "name": "levelUp",
      "outputs": [],
      "payable": false,
      "stateMutability": "nonpayable",
      "type": "function"
    },
    {
      "constant": true,
      "inputs": [
        {
          "name": "_tokenId",
          "type": "uint256"
        }
      ],
      "name": "getGradeModified",
      "outputs": [
        {
          "name": "",
          "type": "uint32"
        }
      ],
      "payable": false,
      "stateMutability": "view",
      "type": "function"
    },
    {
      "constant": true,
      "inputs": [
        {
          "name": "_tokenId",
          "type": "uint256"
        }
      ],
      "name": "getGrade",
      "outputs": [
        {
          "name": "",
          "type": "uint32"
        }
      ],
      "payable": false,
      "stateMutability": "view",
      "type": "function"
    },
    {
      "constant": true,
      "inputs": [
        {
          "name": "_tokenId",
          "type": "uint256"
        }
      ],
      "name": "getGradeType",
      "outputs": [
        {
          "name": "",
          "type": "uint8"
        }
      ],
      "payable": false,
      "stateMutability": "view",
      "type": "function"
    },
    {
      "constant": true,
      "inputs": [
        {
          "name": "_tokenId",
          "type": "uint256"
        }
      ],
      "name": "getGradeValue",
      "outputs": [
        {
          "name": "",
          "type": "uint24"
        }
      ],
      "payable": false,
      "stateMutability": "view",
      "type": "function"
    },
    {
      "constant": false,
      "inputs": [
        {
          "name": "_tokenId",
          "type": "uint256"
        },
        {
          "name": "grade",
          "type": "uint32"
        }
      ],
      "name": "upgradeGrade",
      "outputs": [],
      "payable": false,
      "stateMutability": "nonpayable",
      "type": "function"
    },
    {
      "constant": true,
      "inputs": [
        {
          "name": "_tokenId",
          "type": "uint256"
        }
      ],
      "name": "getStateModified",
      "outputs": [
        {
          "name": "",
          "type": "uint32"
        }
      ],
      "payable": false,
      "stateMutability": "view",
      "type": "function"
    },
    {
      "constant": true,
      "inputs": [
        {
          "name": "_tokenId",
          "type": "uint256"
        }
      ],
      "name": "getState",
      "outputs": [
        {
          "name": "",
          "type": "uint48"
        }
      ],
      "payable": false,
      "stateMutability": "view",
      "type": "function"
    },
    {
      "constant": false,
      "inputs": [
        {
          "name": "_tokenId",
          "type": "uint256"
        },
        {
          "name": "state",
          "type": "uint48"
        }
      ],
      "name": "setState",
      "outputs": [],
      "payable": false,
      "stateMutability": "nonpayable",
      "type": "function"
    },
    {
      "constant": true,
      "inputs": [
        {
          "name": "_tokenId",
          "type": "uint256"
        }
      ],
      "name": "getCreationTime",
      "outputs": [
        {
          "name": "",
          "type": "uint32"
        }
      ],
      "payable": false,
      "stateMutability": "view",
      "type": "function"
    },
    {
      "constant": true,
      "inputs": [
        {
          "name": "_tokenId",
          "type": "uint256"
        }
      ],
      "name": "getOwnershipModified",
      "outputs": [
        {
          "name": "",
          "type": "uint32"
        }
      ],
      "payable": false,
      "stateMutability": "view",
      "type": "function"
    },
    {
      "constant": true,
      "inputs": [],
      "name": "totalSupply",
      "outputs": [
        {
          "name": "",
          "type": "uint256"
        }
      ],
      "payable": false,
      "stateMutability": "view",
      "type": "function"
    },
    {
      "constant": true,
      "inputs": [
        {
          "name": "_index",
          "type": "uint256"
        }
      ],
      "name": "tokenByIndex",
      "outputs": [
        {
          "name": "",
          "type": "uint256"
        }
      ],
      "payable": false,
      "stateMutability": "view",
      "type": "function"
    },
    {
      "constant": true,
      "inputs": [
        {
          "name": "_owner",
          "type": "address"
        },
        {
          "name": "_index",
          "type": "uint256"
        }
      ],
      "name": "tokenOfOwnerByIndex",
      "outputs": [
        {
          "name": "",
          "type": "uint256"
        }
      ],
      "payable": false,
      "stateMutability": "view",
      "type": "function"
    },
    {
      "constant": true,
      "inputs": [
        {
          "name": "_owner",
          "type": "address"
        }
      ],
      "name": "balanceOf",
      "outputs": [
        {
          "name": "",
          "type": "uint256"
        }
      ],
      "payable": false,
      "stateMutability": "view",
      "type": "function"
    },
    {
      "constant": true,
      "inputs": [
        {
          "name": "_tokenId",
          "type": "uint256"
        }
      ],
      "name": "exists",
      "outputs": [
        {
          "name": "",
          "type": "bool"
        }
      ],
      "payable": false,
      "stateMutability": "view",
      "type": "function"
    },
    {
      "constant": true,
      "inputs": [
        {
          "name": "_tokenId",
          "type": "uint256"
        }
      ],
      "name": "ownerOf",
      "outputs": [
        {
          "name": "",
          "type": "address"
        }
      ],
      "payable": false,
      "stateMutability": "view",
      "type": "function"
    },
    {
      "constant": false,
      "inputs": [
        {
          "name": "to",
          "type": "address"
        },
        {
          "name": "tokenId",
          "type": "uint32"
        },
        {
          "name": "plotId",
          "type": "uint32"
        },
        {
          "name": "depth",
          "type": "uint16"
        },
        {
          "name": "gemNum",
          "type": "uint16"
        },
        {
          "name": "color",
          "type": "uint8"
        },
        {
          "name": "level",
          "type": "uint8"
        },
        {
          "name": "gradeType",
          "type": "uint8"
        },
        {
          "name": "gradeValue",
          "type": "uint24"
        }
      ],
      "name": "mint",
      "outputs": [],
      "payable": false,
      "stateMutability": "nonpayable",
      "type": "function"
    },
    {
      "constant": false,
      "inputs": [
        {
          "name": "to",
          "type": "address"
        },
        {
          "name": "_tokenId",
          "type": "uint256"
        }
      ],
      "name": "transfer",
      "outputs": [],
      "payable": false,
      "stateMutability": "nonpayable",
      "type": "function"
    },
    {
      "constant": false,
      "inputs": [
        {
          "name": "from",
          "type": "address"
        },
        {
          "name": "to",
          "type": "address"
        },
        {
          "name": "_tokenId",
          "type": "uint256"
        }
      ],
      "name": "transferFrom",
      "outputs": [],
      "payable": false,
      "stateMutability": "nonpayable",
      "type": "function"
    },
    {
      "constant": false,
      "inputs": [
        {
          "name": "_from",
          "type": "address"
        },
        {
          "name": "_to",
          "type": "address"
        },
        {
          "name": "_tokenId",
          "type": "uint256"
        },
        {
          "name": "_data",
          "type": "bytes"
        }
      ],
      "name": "safeTransferFrom",
      "outputs": [],
      "payable": false,
      "stateMutability": "nonpayable",
      "type": "function"
    },
    {
      "constant": false,
      "inputs": [
        {
          "name": "_from",
          "type": "address"
        },
        {
          "name": "_to",
          "type": "address"
        },
        {
          "name": "_tokenId",
          "type": "uint256"
        }
      ],
      "name": "safeTransferFrom",
      "outputs": [],
      "payable": false,
      "stateMutability": "nonpayable",
      "type": "function"
    },
    {
      "constant": false,
      "inputs": [
        {
          "name": "_approved",
          "type": "address"
        },
        {
          "name": "_tokenId",
          "type": "uint256"
        }
      ],
      "name": "approve",
      "outputs": [],
      "payable": false,
      "stateMutability": "nonpayable",
      "type": "function"
    },
    {
      "constant": false,
      "inputs": [
        {
          "name": "_tokenId",
          "type": "uint256"
        }
      ],
      "name": "revokeApproval",
      "outputs": [],
      "payable": false,
      "stateMutability": "nonpayable",
      "type": "function"
    },
    {
      "constant": false,
      "inputs": [
        {
          "name": "to",
          "type": "address"
        },
        {
          "name": "approved",
          "type": "bool"
        }
      ],
      "name": "setApprovalForAll",
      "outputs": [],
      "payable": false,
      "stateMutability": "nonpayable",
      "type": "function"
    },
    {
      "constant": true,
      "inputs": [
        {
          "name": "_tokenId",
          "type": "uint256"
        }
      ],
      "name": "getApproved",
      "outputs": [
        {
          "name": "",
          "type": "address"
        }
      ],
      "payable": false,
      "stateMutability": "view",
      "type": "function"
    },
    {
      "constant": true,
      "inputs": [
        {
          "name": "_owner",
          "type": "address"
        },
        {
          "name": "_operator",
          "type": "address"
        }
      ],
      "name": "isApprovedForAll",
      "outputs": [
        {
          "name": "",
          "type": "bool"
        }
      ],
      "payable": false,
      "stateMutability": "view",
      "type": "function"
    },
    {
      "constant": true,
      "inputs": [
        {
          "name": "_tokenId",
          "type": "uint256"
        }
      ],
      "name": "tokenURI",
      "outputs": [
        {
          "name": "",
          "type": "string"
        }
      ],
      "payable": false,
      "stateMutability": "view",
      "type": "function"
    }
  ],
  "bytecode": "0x60806040526001600860006101000a81548167ffffffffffffffff021916908367ffffffffffffffff1602179055503480156200003b57600080fd5b507fffffffffffffffffffffffffffffffffffffffffffffffffffffffffffffffff600160003373ffffffffffffffffffffffffffffffffffffffff1673ffffffffffffffffffffffffffffffffffffffff16815260200190815260200160002081905550620000dd6301ffc9a77c010000000000000000000000000000000000000000000000000000000002620001d7640100000000026401000000009004565b6200011a6380ac58cd7c010000000000000000000000000000000000000000000000000000000002620001d7640100000000026401000000009004565b62000157634f558e797c010000000000000000000000000000000000000000000000000000000002620001d7640100000000026401000000009004565b6200019463780e9d637c010000000000000000000000000000000000000000000000000000000002620001d7640100000000026401000000009004565b620001d1635b5e139f7c010000000000000000000000000000000000000000000000000000000002620001d7640100000000026401000000009004565b62000296565b63ffffffff7c010000000000000000000000000000000000000000000000000000000002817bffffffffffffffffffffffffffffffffffffffffffffffffffffffff1916141515156200022957600080fd5b600160026000837bffffffffffffffffffffffffffffffffffffffffffffffffffffffff19167bffffffffffffffffffffffffffffffffffffffffffffffffffffffff1916815260200190815260200160002060006101000a81548160ff02191690831515021790555050565b6154dd80620002a66000396000f300608060405260043610610317576000357c0100000000000000000000000000000000000000000000000000000000900463ffffffff16806301ffc9a71461031c578063034ac7a31461038057806305e0d5b4146103b757806306fdde0314610404578063081812fc14610494578063095ea7b3146105015780630bf378181461054e5780630ce90ec2146105a35780630f7fa72f146105d057806313b2c5f31461061d57806317c163e91461066857806318160ddd1461069f57806319fa8f50146106ca5780631b8ca2171461073357806323b872dd146107845780632b521416146107f15780632f745c591461081c578063313ce5671461087d57806332892177146108ae57806334d82220146108e557806338272c83146109605780633862ea9d146109ad57806338b486c9146109ec5780633e69492d14610a2957806342842e0e14610a7657806344c9af2814610ae357806347c76a9f14610b3457806348931e2514610b815780634932488c14610bce57806349a764cd14610c665780634f558e7914610cd35780634f6ccce714610d185780635988c71614610d5957806363035f6614610da2578063634282af14610e0f5780636352211e14610e5c57806370a0823114610ec957806374d5e10014610f2057806375e618c914610f77578063761e0d2d14610fc057806379db5f6714610fff5780637fde1c8a1461104c57806380057b9a146110995780638353bb51146110e057806386481d401461111757806387d3764b1461115e5780638d4e57e6146111955780638f2747b7146111cc5780638f6fba8c1461120b57806395d89b411461124257806397ec23cb146112d2578063a1f0406d1461131f578063a22cb4651461145d578063a9059cbb146114ac578063ac33d907146114f9578063ac8a584a14611540578063b1e130fc14611583578063b88d4fde146115b0578063bdefce8c14611663578063c0d6568d146116ab578063c87b56dd146116e2578063d5bb7f6714611788578063dd6c8724146117b5578063e1e0485e1461186a578063e40de887146118b7578063e985e9c51461194f578063f8a2449f146119ca575b600080fd5b34801561032857600080fd5b5061036660048036038101908080357bffffffffffffffffffffffffffffffffffffffffffffffffffffffff19169060200190929190505050611a01565b604051808215151515815260200191505060405180910390f35b34801561038c57600080fd5b50610395611a69565b604051808263ffffffff1663ffffffff16815260200191505060405180910390f35b3480156103c357600080fd5b506103e260048036038101908080359060200190929190505050611a70565b604051808263ffffffff1663ffffffff16815260200191505060405180910390f35b34801561041057600080fd5b50610419611ab4565b6040518080602001828103825283818151815260200191508051906020019080838360005b8381101561045957808201518184015260208101905061043e565b50505050905090810190601f1680156104865780820380516001836020036101000a031916815260200191505b509250505060405180910390f35b3480156104a057600080fd5b506104bf60048036038101908080359060200190929190505050611aed565b604051808273ffffffffffffffffffffffffffffffffffffffff1673ffffffffffffffffffffffffffffffffffffffff16815260200191505060405180910390f35b34801561050d57600080fd5b5061054c600480360381019080803573ffffffffffffffffffffffffffffffffffffffff16906020019092919080359060200190929190505050611b3e565b005b34801561055a57600080fd5b5061057960048036038101908080359060200190929190505050611d1e565b604051808267ffffffffffffffff1667ffffffffffffffff16815260200191505060405180910390f35b3480156105af57600080fd5b506105ce60048036038101908080359060200190929190505050611d66565b005b3480156105dc57600080fd5b5061061b600480360381019080803573ffffffffffffffffffffffffffffffffffffffff16906020019092919080359060200190929190505050611eac565b005b34801561062957600080fd5b5061064860048036038101908080359060200190929190505050612061565b604051808262ffffff1662ffffff16815260200191505060405180910390f35b34801561067457600080fd5b5061067d612073565b604051808263ffffffff1663ffffffff16815260200191505060405180910390f35b3480156106ab57600080fd5b506106b461207a565b6040518082815260200191505060405180910390f35b3480156106d657600080fd5b506106df612087565b60405180827bffffffffffffffffffffffffffffffffffffffffffffffffffffffff19167bffffffffffffffffffffffffffffffffffffffffffffffffffffffff1916815260200191505060405180910390f35b34801561073f57600080fd5b5061075e600480360381019080803590602001909291905050506120ae565b604051808265ffffffffffff1665ffffffffffff16815260200191505060405180910390f35b34801561079057600080fd5b506107ef600480360381019080803573ffffffffffffffffffffffffffffffffffffffff169060200190929190803573ffffffffffffffffffffffffffffffffffffffff1690602001909291908035906020019092919050505061232f565b005b3480156107fd57600080fd5b506108066124bc565b6040518082815260200191505060405180910390f35b34801561082857600080fd5b50610867600480360381019080803573ffffffffffffffffffffffffffffffffffffffff169060200190929190803590602001909291905050506124c2565b6040518082815260200191505060405180910390f35b34801561088957600080fd5b50610892612594565b604051808260ff1660ff16815260200191505060405180910390f35b3480156108ba57600080fd5b506108c3612599565b604051808263ffffffff1663ffffffff16815260200191505060405180910390f35b3480156108f157600080fd5b50610946600480360381019080803573ffffffffffffffffffffffffffffffffffffffff169060200190929190803573ffffffffffffffffffffffffffffffffffffffff16906020019092919050505061259e565b604051808215151515815260200191505060405180910390f35b34801561096c57600080fd5b5061098b600480360381019080803590602001909291905050506125cd565b604051808263ffffffff1663ffffffff16815260200191505060405180910390f35b3480156109b957600080fd5b506109c2612611565b604051808267ffffffffffffffff1667ffffffffffffffff16815260200191505060405180910390f35b3480156109f857600080fd5b50610a2760048036038101908080359060200190929190803563ffffffff16906020019092919050505061262b565b005b348015610a3557600080fd5b50610a54600480360381019080803590602001909291905050506127be565b604051808263ffffffff1663ffffffff16815260200191505060405180910390f35b348015610a8257600080fd5b50610ae1600480360381019080803573ffffffffffffffffffffffffffffffffffffffff169060200190929190803573ffffffffffffffffffffffffffffffffffffffff16906020019092919080359060200190929190505050612802565b005b348015610aef57600080fd5b50610b0e60048036038101908080359060200190929190505050612823565b604051808265ffffffffffff1665ffffffffffff16815260200191505060405180910390f35b348015610b4057600080fd5b50610b5f60048036038101908080359060200190929190505050612869565b604051808263ffffffff1663ffffffff16815260200191505060405180910390f35b348015610b8d57600080fd5b50610bac600480360381019080803590602001909291905050506128ad565b604051808263ffffffff1663ffffffff16815260200191505060405180910390f35b348015610bda57600080fd5b50610c0f600480360381019080803573ffffffffffffffffffffffffffffffffffffffff1690602001909291905050506128d1565b6040518080602001828103825283818151815260200191508051906020019060200280838360005b83811015610c52578082015181840152602081019050610c37565b505050509050019250505060405180910390f35b348015610c7257600080fd5b50610cb1600480360381019080803573ffffffffffffffffffffffffffffffffffffffff169060200190929190803590602001909291905050506129e9565b604051808263ffffffff1663ffffffff16815260200191505060405180910390f35b348015610cdf57600080fd5b50610cfe60048036038101908080359060200190929190505050612a31565b604051808215151515815260200191505060405180910390f35b348015610d2457600080fd5b50610d4360048036038101908080359060200190929190505050612aa0565b6040518082815260200191505060405180910390f35b348015610d6557600080fd5b50610d8460048036038101908080359060200190929190505050612af7565b604051808261ffff1661ffff16815260200191505060405180910390f35b348015610dae57600080fd5b50610dcd60048036038101908080359060200190929190505050612b09565b604051808273ffffffffffffffffffffffffffffffffffffffff1673ffffffffffffffffffffffffffffffffffffffff16815260200191505060405180910390f35b348015610e1b57600080fd5b50610e3a60048036038101908080359060200190929190505050612b3c565b604051808263ffffffff1663ffffffff16815260200191505060405180910390f35b348015610e6857600080fd5b50610e8760048036038101908080359060200190929190505050612b75565b604051808273ffffffffffffffffffffffffffffffffffffffff1673ffffffffffffffffffffffffffffffffffffffff16815260200191505060405180910390f35b348015610ed557600080fd5b50610f0a600480360381019080803573ffffffffffffffffffffffffffffffffffffffff169060200190929190505050612bc9565b6040518082815260200191505060405180910390f35b348015610f2c57600080fd5b50610f61600480360381019080803573ffffffffffffffffffffffffffffffffffffffff169060200190929190505050612c15565b6040518082815260200191505060405180910390f35b348015610f8357600080fd5b50610fa260048036038101908080359060200190929190505050612c2d565b604051808261ffff1661ffff16815260200191505060405180910390f35b348015610fcc57600080fd5b50610fd5612c51565b604051808267ffffffffffffffff1667ffffffffffffffff16815260200191505060405180910390f35b34801561100b57600080fd5b5061104a600480360381019080803573ffffffffffffffffffffffffffffffffffffffff16906020019092919080359060200190929190505050612c56565b005b34801561105857600080fd5b50611097600480360381019080803573ffffffffffffffffffffffffffffffffffffffff16906020019092919080359060200190929190505050612de8565b005b3480156110a557600080fd5b506110c460048036038101908080359060200190929190505050612fa7565b604051808260ff1660ff16815260200191505060405180910390f35b3480156110ec57600080fd5b506110f5612fe8565b604051808263ffffffff1663ffffffff16815260200191505060405180910390f35b34801561112357600080fd5b5061114260048036038101908080359060200190929190505050612fef565b604051808260ff1660ff16815260200191505060405180910390f35b34801561116a57600080fd5b50611173613030565b604051808263ffffffff1663ffffffff16815260200191505060405180910390f35b3480156111a157600080fd5b506111aa613037565b604051808263ffffffff1663ffffffff16815260200191505060405180910390f35b3480156111d857600080fd5b5061120960048036038101908080359060200190929190803565ffffffffffff16906020019092919050505061303e565b005b34801561121757600080fd5b5061122061319f565b604051808263ffffffff1663ffffffff16815260200191505060405180910390f35b34801561124e57600080fd5b506112576131a4565b6040518080602001828103825283818151815260200191508051906020019080838360005b8381101561129757808201518184015260208101905061127c565b50505050905090810190601f1680156112c45780820380516001836020036101000a031916815260200191505b509250505060405180910390f35b3480156112de57600080fd5b506112fd600480360381019080803590602001909291905050506131dd565b604051808263ffffffff1663ffffffff16815260200191505060405180910390f35b34801561132b57600080fd5b5061134a60048036038101908080359060200190929190505050613221565b604051808d67ffffffffffffffff1667ffffffffffffffff1681526020018c60ff1660ff1681526020018b63ffffffff1663ffffffff1681526020018a60ff1660ff1681526020018963ffffffff1663ffffffff1681526020018863ffffffff1663ffffffff1681526020018763ffffffff1663ffffffff1681526020018665ffffffffffff1665ffffffffffff1681526020018563ffffffff1663ffffffff1681526020018463ffffffff1663ffffffff1681526020018363ffffffff1663ffffffff1681526020018273ffffffffffffffffffffffffffffffffffffffff1673ffffffffffffffffffffffffffffffffffffffff1681526020019c5050505050505050505050505060405180910390f35b34801561146957600080fd5b506114aa600480360381019080803573ffffffffffffffffffffffffffffffffffffffff169060200190929190803515159060200190929190505050613351565b005b3480156114b857600080fd5b506114f7600480360381019080803573ffffffffffffffffffffffffffffffffffffffff169060200190929190803590602001909291905050506134cf565b005b34801561150557600080fd5b50611524600480360381019080803590602001909291905050506134ff565b604051808260ff1660ff16815260200191505060405180910390f35b34801561154c57600080fd5b50611581600480360381019080803573ffffffffffffffffffffffffffffffffffffffff16906020019092919050505061351f565b005b34801561158f57600080fd5b506115ae600480360381019080803590602001909291905050506136f4565b005b3480156115bc57600080fd5b50611661600480360381019080803573ffffffffffffffffffffffffffffffffffffffff169060200190929190803573ffffffffffffffffffffffffffffffffffffffff16906020019092919080359060200190929190803590602001908201803590602001908080601f0160208091040260200160405190810160405280939291908181526020018383808284378201915050505050509192919290505050613702565b005b34801561166f57600080fd5b5061168e60048036038101908080359060200190929190505050613915565b604051808381526020018281526020019250505060405180910390f35b3480156116b757600080fd5b506116c0613dab565b604051808263ffffffff1663ffffffff16815260200191505060405180910390f35b3480156116ee57600080fd5b5061170d60048036038101908080359060200190929190505050613db0565b6040518080602001828103825283818151815260200191508051906020019080838360005b8381101561174d578082015181840152602081019050611732565b50505050905090810190601f16801561177a5780820380516001836020036101000a031916815260200191505b509250505060405180910390f35b34801561179457600080fd5b506117b360048036038101908080359060200190929190505050613e16565b005b3480156117c157600080fd5b50611868600480360381019080803573ffffffffffffffffffffffffffffffffffffffff169060200190929190803563ffffffff169060200190929190803563ffffffff169060200190929190803561ffff169060200190929190803561ffff169060200190929190803560ff169060200190929190803560ff169060200190929190803560ff169060200190929190803562ffffff169060200190929190505050613f3a565b005b34801561187657600080fd5b5061189560048036038101908080359060200190929190505050614058565b604051808263ffffffff1663ffffffff16815260200191505060405180910390f35b3480156118c357600080fd5b506118f8600480360381019080803573ffffffffffffffffffffffffffffffffffffffff16906020019092919050505061409c565b6040518080602001828103825283818151815260200191508051906020019060200280838360005b8381101561193b578082015181840152602081019050611920565b505050509050019250505060405180910390f35b34801561195b57600080fd5b506119b0600480360381019080803573ffffffffffffffffffffffffffffffffffffffff169060200190929190803573ffffffffffffffffffffffffffffffffffffffff16906020019092919050505061415f565b604051808215151515815260200191505060405180910390f35b3480156119d657600080fd5b506119ff600480360381019080803567ffffffffffffffff1690602001909291905050506141f3565b005b600060026000837bffffffffffffffffffffffffffffffffffffffffffffffffffffffff19167bffffffffffffffffffffffffffffffffffffffffffffffffffffffff1916815260200190815260200160002060009054906101000a900460ff169050919050565b6220000081565b6000611a7b82612a31565b1515611a8657600080fd5b6003600083815260200190815260200160002060000160169054906101000a900463ffffffff169050919050565b6040805190810160405280601981526020017f47454d20e280932043727970746f4d696e657220576f726c640000000000000081525081565b6000611af882612a31565b1515611b0357600080fd5b6004600083815260200190815260200160002060009054906101000a900473ffffffffffffffffffffffffffffffffffffffff169050919050565b600080339150611b4d83612b75565b90508073ffffffffffffffffffffffffffffffffffffffff168273ffffffffffffffffffffffffffffffffffffffff16141515611b8957600080fd5b8073ffffffffffffffffffffffffffffffffffffffff168473ffffffffffffffffffffffffffffffffffffffff1614151515611bc457600080fd5b600073ffffffffffffffffffffffffffffffffffffffff166004600085815260200190815260200160002060009054906101000a900473ffffffffffffffffffffffffffffffffffffffff1673ffffffffffffffffffffffffffffffffffffffff16141580611c605750600073ffffffffffffffffffffffffffffffffffffffff168473ffffffffffffffffffffffffffffffffffffffff1614155b1515611c6b57600080fd5b836004600085815260200190815260200160002060006101000a81548173ffffffffffffffffffffffffffffffffffffffff021916908373ffffffffffffffffffffffffffffffffffffffff160217905550828473ffffffffffffffffffffffffffffffffffffffff168373ffffffffffffffffffffffffffffffffffffffff167f8c5be1e5ebec7d5bd14f71427d1e84f3dd0314c0f7b2291e5b200ac8c7c3b92560405160405180910390a450505050565b6000611d2982612a31565b1515611d3457600080fd5b6003600083815260200190815260200160002060000160009054906101000a900467ffffffffffffffff169050919050565b611d786210000063ffffffff1661423c565b1515611d8357600080fd5b611d8c81612a31565b1515611d9757600080fd5b436003600083815260200190815260200160002060000160096101000a81548163ffffffff021916908363ffffffff16021790555060036000828152602001908152602001600020600001600d81819054906101000a900460ff168092919060010191906101000a81548160ff021916908360ff1602179055505080611e1c82612b75565b73ffffffffffffffffffffffffffffffffffffffff163373ffffffffffffffffffffffffffffffffffffffff167fd693f7897ea5570e5e6cc7ba2f6e9046767ef404654d19d67e4e4c9ff31db53660036000868152602001908152602001600020600001600d9054906101000a900460ff16604051808260ff1660ff16815260200191505060405180910390a450565b6000806000339250600160008473ffffffffffffffffffffffffffffffffffffffff1673ffffffffffffffffffffffffffffffffffffffff1681526020019081526020016000205491506000600160008773ffffffffffffffffffffffffffffffffffffffff1673ffffffffffffffffffffffffffffffffffffffff16815260200190815260200160002054141515611f4457600080fd5b611f52826310000000614293565b1515611f5d57600080fd5b818416905060008114151515611f7257600080fd5b80600160008773ffffffffffffffffffffffffffffffffffffffff1673ffffffffffffffffffffffffffffffffffffffff168152602001908152602001600020819055508473ffffffffffffffffffffffffffffffffffffffff168373ffffffffffffffffffffffffffffffffffffffff167fde4cd40876c200276a5c070f12c8512913143450b14c88bfaa4245b24a5092af600160008973ffffffffffffffffffffffffffffffffffffffff1673ffffffffffffffffffffffffffffffffffffffff168152602001908152602001600020546040518082815260200191505060405180910390a35050505050565b600061206c82614058565b9050919050565b6280000081565b6000600780549050905090565b6301ffc9a77c01000000000000000000000000000000000000000000000000000000000281565b60006120b8615398565b6120c183612a31565b15156120cc57600080fd5b6003600084815260200190815260200160002061018060405190810160405290816000820160009054906101000a900467ffffffffffffffff1667ffffffffffffffff1667ffffffffffffffff1681526020016000820160089054906101000a900460ff1660ff1660ff1681526020016000820160099054906101000a900463ffffffff1663ffffffff1663ffffffff16815260200160008201600d9054906101000a900460ff1660ff1660ff16815260200160008201600e9054906101000a900463ffffffff1663ffffffff1663ffffffff1681526020016000820160129054906101000a900463ffffffff1663ffffffff1663ffffffff1681526020016000820160169054906101000a900463ffffffff1663ffffffff1663ffffffff16815260200160008201601a9054906101000a900465ffffffffffff1665ffffffffffff1665ffffffffffff1681526020016001820160009054906101000a900463ffffffff1663ffffffff1663ffffffff1681526020016001820160049054906101000a900463ffffffff1663ffffffff1663ffffffff1681526020016001820160089054906101000a900463ffffffff1663ffffffff1663ffffffff16815260200160018201600c9054906101000a900473ffffffffffffffffffffffffffffffffffffffff1673ffffffffffffffffffffffffffffffffffffffff1673ffffffffffffffffffffffffffffffffffffffff168152505090508060a0015163ffffffff166020826060015160ff1664ffffffffff169060020a0264ffffffffff166028836020015160ff1665ffffffffffff169060020a021717915050919050565b6000806000612344600263ffffffff166142a2565b151561234f57600080fd5b3392506004600085815260200190815260200160002060009054906101000a900473ffffffffffffffffffffffffffffffffffffffff169150600560008773ffffffffffffffffffffffffffffffffffffffff1673ffffffffffffffffffffffffffffffffffffffff16815260200190815260200160002060008473ffffffffffffffffffffffffffffffffffffffff1673ffffffffffffffffffffffffffffffffffffffff16815260200190815260200160002060009054906101000a900460ff1690508173ffffffffffffffffffffffffffffffffffffffff168373ffffffffffffffffffffffffffffffffffffffff161415801561244e575080155b156124a9578273ffffffffffffffffffffffffffffffffffffffff168673ffffffffffffffffffffffffffffffffffffffff1614151561248d57600080fd5b61249d600163ffffffff166142a2565b15156124a857600080fd5b5b6124b48686866142b7565b505050505050565b60005481565b6000600660008473ffffffffffffffffffffffffffffffffffffffff1673ffffffffffffffffffffffffffffffffffffffff168152602001908152602001600020805490508210151561251457600080fd5b600660008473ffffffffffffffffffffffffffffffffffffffff1673ffffffffffffffffffffffffffffffffffffffff1681526020019081526020016000208281548110151561256057fe5b90600052602060002090600891828204019190066004029054906101000a900463ffffffff1663ffffffff16905092915050565b600081565b600381565b60056020528160005260406000206020528060005260406000206000915091509054906101000a900460ff1681565b60006125d882612a31565b15156125e357600080fd5b6003600083815260200190815260200160002060000160099054906101000a900463ffffffff169050919050565b600860009054906101000a900467ffffffffffffffff1681565b61263d6220000063ffffffff1661423c565b151561264857600080fd5b61265182612a31565b151561265c57600080fd5b8063ffffffff166003600084815260200190815260200160002060000160129054906101000a900463ffffffff1663ffffffff1610151561269c57600080fd5b816126a683612b75565b73ffffffffffffffffffffffffffffffffffffffff163373ffffffffffffffffffffffffffffffffffffffff167f2e248c68b7b360c93d67684c218cada70ca2e1e05d355b7e762dfe4bcc1e2a8c6003600087815260200190815260200160002060000160129054906101000a900463ffffffff1685604051808363ffffffff1663ffffffff1681526020018263ffffffff1663ffffffff1681526020019250505060405180910390a4806003600084815260200190815260200160002060000160126101000a81548163ffffffff021916908363ffffffff1602179055504360036000848152602001908152602001600020600001600e6101000a81548163ffffffff021916908363ffffffff1602179055505050565b60006127c982612a31565b15156127d457600080fd5b60036000838152602001908152602001600020600001600e9054906101000a900463ffffffff169050919050565b61281e8383836020604051908101604052806000815250613702565b505050565b600061282e82612a31565b151561283957600080fd5b60036000838152602001908152602001600020600001601a9054906101000a900465ffffffffffff169050919050565b600061287482612a31565b151561287f57600080fd5b6003600083815260200190815260200160002060010160089054906101000a900463ffffffff169050919050565b600060206128ba83611d1e565b67ffffffffffffffff169060020a90049050919050565b6060806000606060008060006128e68861409c565b9550855194508463ffffffff166040519080825280602002602001820160405280156129215781602001602082028038833980820191505090505b509350600092505b8463ffffffff168363ffffffff1610156129db57858363ffffffff1681518110151561295157fe5b90602001906020020151915061296c8263ffffffff166120ae565b90508065ffffffffffff1660308363ffffffff1669ffffffffffffffffffff169060020a0217848463ffffffff168151811015156129a657fe5b9060200190602002019069ffffffffffffffffffff16908169ffffffffffffffffffff16815250508280600101935050612929565b839650505050505050919050565b600660205281600052604060002081815481101515612a0457fe5b9060005260206000209060089182820401919006600402915091509054906101000a900463ffffffff1681565b60008073ffffffffffffffffffffffffffffffffffffffff1660036000848152602001908152602001600020600101600c9054906101000a900473ffffffffffffffffffffffffffffffffffffffff1673ffffffffffffffffffffffffffffffffffffffff1614159050919050565b600060078054905082101515612ab557600080fd5b600782815481101515612ac457fe5b90600052602060002090600891828204019190066004029054906101000a900463ffffffff1663ffffffff169050919050565b6000612b0282611d1e565b9050919050565b60046020528060005260406000206000915054906101000a900473ffffffffffffffffffffffffffffffffffffffff1681565b600781815481101515612b4b57fe5b9060005260206000209060089182820401919006600402915054906101000a900463ffffffff1681565b6000612b8082612a31565b1515612b8b57600080fd5b60036000838152602001908152602001600020600101600c9054906101000a900473ffffffffffffffffffffffffffffffffffffffff169050919050565b6000600660008373ffffffffffffffffffffffffffffffffffffffff1673ffffffffffffffffffffffffffffffffffffffff168152602001908152602001600020805490509050919050565b60016020528060005260406000206000915090505481565b60006010612c3a83611d1e565b67ffffffffffffffff169060020a90049050919050565b600181565b6000806000339250600160008473ffffffffffffffffffffffffffffffffffffffff1673ffffffffffffffffffffffffffffffffffffffff168152602001908152602001600020549150612cae826310000000614293565b1515612cb957600080fd5b818416905060008114151515612cce57600080fd5b807fffffffffffffffffffffffffffffffffffffffffffffffffffffffffffffffff18600160008773ffffffffffffffffffffffffffffffffffffffff1673ffffffffffffffffffffffffffffffffffffffff168152602001908152602001600020600082825416925050819055508473ffffffffffffffffffffffffffffffffffffffff168373ffffffffffffffffffffffffffffffffffffffff167fde4cd40876c200276a5c070f12c8512913143450b14c88bfaa4245b24a5092af600160008973ffffffffffffffffffffffffffffffffffffffff1673ffffffffffffffffffffffffffffffffffffffff168152602001908152602001600020546040518082815260200191505060405180910390a35050505050565b6000806000339250600160008473ffffffffffffffffffffffffffffffffffffffff1673ffffffffffffffffffffffffffffffffffffffff1681526020019081526020016000205491506000600160008773ffffffffffffffffffffffffffffffffffffffff1673ffffffffffffffffffffffffffffffffffffffff1681526020019081526020016000205414151515612e8157600080fd5b612e8f826310000000614293565b1515612e9a57600080fd5b818416905060008114151515612eaf57600080fd5b80600160008773ffffffffffffffffffffffffffffffffffffffff1673ffffffffffffffffffffffffffffffffffffffff168152602001908152602001600020600082825417925050819055508473ffffffffffffffffffffffffffffffffffffffff168373ffffffffffffffffffffffffffffffffffffffff167fde4cd40876c200276a5c070f12c8512913143450b14c88bfaa4245b24a5092af600160008973ffffffffffffffffffffffffffffffffffffffff1673ffffffffffffffffffffffffffffffffffffffff168152602001908152602001600020546040518082815260200191505060405180910390a35050505050565b6000612fb282612a31565b1515612fbd57600080fd5b6003600083815260200190815260200160002060000160089054906101000a900460ff169050919050565b6240000081565b6000612ffa82612a31565b151561300557600080fd5b60036000838152602001908152602001600020600001600d9054906101000a900460ff169050919050565b6210000081565b6204000081565b6130506240000063ffffffff1661423c565b151561305b57600080fd5b61306482612a31565b151561306f57600080fd5b8161307983612b75565b73ffffffffffffffffffffffffffffffffffffffff163373ffffffffffffffffffffffffffffffffffffffff167f1b755b8ec947974a4b8f50c18c45e32ed3ac8ec062be077abf3975c39e6a39b160036000878152602001908152602001600020600001601a9054906101000a900465ffffffffffff1685604051808365ffffffffffff1665ffffffffffff1681526020018265ffffffffffff1665ffffffffffff1681526020019250505060405180910390a48060036000848152602001908152602001600020600001601a6101000a81548165ffffffffffff021916908365ffffffffffff160217905550436003600084815260200190815260200160002060000160166101000a81548163ffffffff021916908363ffffffff1602179055505050565b600281565b6040805190810160405280600381526020017f47454d000000000000000000000000000000000000000000000000000000000081525081565b60006131e882612a31565b15156131f357600080fd5b6003600083815260200190815260200160002060010160009054906101000a900463ffffffff169050919050565b60036020528060005260406000206000915090508060000160009054906101000a900467ffffffffffffffff16908060000160089054906101000a900460ff16908060000160099054906101000a900463ffffffff169080600001600d9054906101000a900460ff169080600001600e9054906101000a900463ffffffff16908060000160129054906101000a900463ffffffff16908060000160169054906101000a900463ffffffff169080600001601a9054906101000a900465ffffffffffff16908060010160009054906101000a900463ffffffff16908060010160049054906101000a900463ffffffff16908060010160089054906101000a900463ffffffff169080600101600c9054906101000a900473ffffffffffffffffffffffffffffffffffffffff1690508c565b6000339050600073ffffffffffffffffffffffffffffffffffffffff168373ffffffffffffffffffffffffffffffffffffffff161415151561339257600080fd5b8073ffffffffffffffffffffffffffffffffffffffff168373ffffffffffffffffffffffffffffffffffffffff16141515156133cd57600080fd5b81600560008373ffffffffffffffffffffffffffffffffffffffff1673ffffffffffffffffffffffffffffffffffffffff16815260200190815260200160002060008573ffffffffffffffffffffffffffffffffffffffff1673ffffffffffffffffffffffffffffffffffffffff16815260200190815260200160002060006101000a81548160ff0219169083151502179055508273ffffffffffffffffffffffffffffffffffffffff168173ffffffffffffffffffffffffffffffffffffffff167f17307eab39ab6107e8899845ad3d59bd9653f200f220920489ca2b5937696c3184604051808215151515815260200191505060405180910390a3505050565b60006134e1600163ffffffff166142a2565b15156134ec57600080fd5b3390506134fa8184846142b7565b505050565b6000601861350c83614058565b63ffffffff169060020a90049050919050565b60003390506000600160008473ffffffffffffffffffffffffffffffffffffffff1673ffffffffffffffffffffffffffffffffffffffff168152602001908152602001600020541415151561357357600080fd5b8073ffffffffffffffffffffffffffffffffffffffff168273ffffffffffffffffffffffffffffffffffffffff16141515156135ae57600080fd5b61363c600160008373ffffffffffffffffffffffffffffffffffffffff1673ffffffffffffffffffffffffffffffffffffffff16815260200190815260200160002054600160008573ffffffffffffffffffffffffffffffffffffffff1673ffffffffffffffffffffffffffffffffffffffff16815260200190815260200160002054631000000017614293565b151561364757600080fd5b600160008373ffffffffffffffffffffffffffffffffffffffff1673ffffffffffffffffffffffffffffffffffffffff168152602001908152602001600020600090558173ffffffffffffffffffffffffffffffffffffffff168173ffffffffffffffffffffffffffffffffffffffff167fde4cd40876c200276a5c070f12c8512913143450b14c88bfaa4245b24a5092af60006040518082815260200191505060405180910390a35050565b6136ff600082611b3e565b50565b600061370f85858561232f565b6137188461447e565b1561390e578373ffffffffffffffffffffffffffffffffffffffff1663150b7a02338786866040518563ffffffff167c0100000000000000000000000000000000000000000000000000000000028152600401808573ffffffffffffffffffffffffffffffffffffffff1673ffffffffffffffffffffffffffffffffffffffff1681526020018473ffffffffffffffffffffffffffffffffffffffff1673ffffffffffffffffffffffffffffffffffffffff16815260200183815260200180602001828103825283818151815260200191508051906020019080838360005b838110156138125780820151818401526020810190506137f7565b50505050905090810190601f16801561383f5780820380516001836020036101000a031916815260200191505b5095505050505050602060405180830381600087803b15801561386157600080fd5b505af1158015613875573d6000803e3d6000fd5b505050506040513d602081101561388b57600080fd5b8101908080519060200190929190505050905063150b7a027c0100000000000000000000000000000000000000000000000000000000027bffffffffffffffffffffffffffffffffffffffffffffffffffffffff1916817bffffffffffffffffffffffffffffffffffffffffffffffffffffffff191614151561390d57600080fd5b5b5050505050565b600080613920615398565b60008061392c86612a31565b151561393757600080fd5b6003600087815260200190815260200160002061018060405190810160405290816000820160009054906101000a900467ffffffffffffffff1667ffffffffffffffff1667ffffffffffffffff1681526020016000820160089054906101000a900460ff1660ff1660ff1681526020016000820160099054906101000a900463ffffffff1663ffffffff1663ffffffff16815260200160008201600d9054906101000a900460ff1660ff1660ff16815260200160008201600e9054906101000a900463ffffffff1663ffffffff1663ffffffff1681526020016000820160129054906101000a900463ffffffff1663ffffffff1663ffffffff1681526020016000820160169054906101000a900463ffffffff1663ffffffff1663ffffffff16815260200160008201601a9054906101000a900465ffffffffffff1665ffffffffffff1665ffffffffffff1681526020016001820160009054906101000a900463ffffffff1663ffffffff1663ffffffff1681526020016001820160049054906101000a900463ffffffff1663ffffffff1663ffffffff1681526020016001820160089054906101000a900463ffffffff1663ffffffff1663ffffffff16815260200160018201600c9054906101000a900473ffffffffffffffffffffffffffffffffffffffff1673ffffffffffffffffffffffffffffffffffffffff1673ffffffffffffffffffffffffffffffffffffffff168152505092508260e0015165ffffffffffff1660308460c0015163ffffffff1669ffffffffffffffffffff169060020a0269ffffffffffffffffffff1660508560a0015163ffffffff166dffffffffffffffffffffffffffff169060020a026dffffffffffffffffffffffffffff166070866080015163ffffffff1671ffffffffffffffffffffffffffffffffffff169060020a0271ffffffffffffffffffffffffffffffffffff166090876060015160ff1672ffffffffffffffffffffffffffffffffffffff169060020a0272ffffffffffffffffffffffffffffffffffffff166098886040015163ffffffff1676ffffffffffffffffffffffffffffffffffffffffffffff169060020a0276ffffffffffffffffffffffffffffffffffffffffffffff1660b8896020015160ff1677ffffffffffffffffffffffffffffffffffffffffffffffff169060020a0277ffffffffffffffffffffffffffffffffffffffffffffffff1660c08a6000015167ffffffffffffffff169060020a0217171717171717915082610160015173ffffffffffffffffffffffffffffffffffffffff1660a084610140015163ffffffff1677ffffffffffffffffffffffffffffffffffffffffffffffff169060020a0277ffffffffffffffffffffffffffffffffffffffffffffffff1660c085610120015163ffffffff167bffffffffffffffffffffffffffffffffffffffffffffffffffffffff169060020a027bffffffffffffffffffffffffffffffffffffffffffffffffffffffff1660e086610100015163ffffffff169060020a021717179050818194509450505050915091565b600181565b6060613dbb82612a31565b1515613dc657600080fd5b613e0f6040805190810160405280602081526020017f687474703a2f2f63727970746f6d696e6572776f726c642e636f6d2f67656d2f815250613e0a846010614495565b6148fa565b9050919050565b600080339150600160008373ffffffffffffffffffffffffffffffffffffffff1673ffffffffffffffffffffffffffffffffffffffff168152602001908152602001600020549050613e6c816320000000614293565b1515613e7757600080fd5b8281166000808282541792505081905550827fffffffffffffffffffffffffffffffffffffffffffffffffffffffffffffffff1881167fffffffffffffffffffffffffffffffffffffffffffffffffffffffffffffffff1860008082825416925050819055508173ffffffffffffffffffffffffffffffffffffffff167fd7561eaef77f105dc0c307bfb23c571f603f07bb7db5766a68840742fde80b8984600054604051808381526020018281526020019250505060405180910390a2505050565b600073ffffffffffffffffffffffffffffffffffffffff168973ffffffffffffffffffffffffffffffffffffffff1614151515613f7657600080fd5b3073ffffffffffffffffffffffffffffffffffffffff168973ffffffffffffffffffffffffffffffffffffffff1614151515613fb157600080fd5b613fc36204000063ffffffff1661423c565b1515613fce57600080fd5b613fdf898989898989898989614ab8565b8763ffffffff168973ffffffffffffffffffffffffffffffffffffffff16600073ffffffffffffffffffffffffffffffffffffffff167f9ed053bb818ff08b8353cd46f78db1f0799f31c9e4458fdb425c10eccd2efc4460016040518082815260200191505060405180910390a4505050505050505050565b600061406382612a31565b151561406e57600080fd5b6003600083815260200190815260200160002060000160129054906101000a900463ffffffff169050919050565b6060600660008373ffffffffffffffffffffffffffffffffffffffff1673ffffffffffffffffffffffffffffffffffffffff16815260200190815260200160002080548060200260200160405190810160405280929190818152602001828054801561415357602002820191906000526020600020906000905b82829054906101000a900463ffffffff1663ffffffff16815260200190600401906020826003010492830192600103820291508084116141165790505b50505050509050919050565b6000600560008473ffffffffffffffffffffffffffffffffffffffff1673ffffffffffffffffffffffffffffffffffffffff16815260200190815260200160002060008373ffffffffffffffffffffffffffffffffffffffff1673ffffffffffffffffffffffffffffffffffffffff16815260200190815260200160002060009054906101000a900460ff16905092915050565b6142056280000063ffffffff1661423c565b151561421057600080fd5b80600860006101000a81548167ffffffffffffffff021916908367ffffffffffffffff16021790555050565b600080600160003373ffffffffffffffffffffffffffffffffffffffff1673ffffffffffffffffffffffffffffffffffffffff16815260200190815260200160002054905061428b8184614293565b915050919050565b60008182841614905092915050565b60006142b060005483614293565b9050919050565b600073ffffffffffffffffffffffffffffffffffffffff168273ffffffffffffffffffffffffffffffffffffffff16141515156142f357600080fd5b8273ffffffffffffffffffffffffffffffffffffffff168273ffffffffffffffffffffffffffffffffffffffff161415151561432e57600080fd5b600073ffffffffffffffffffffffffffffffffffffffff168373ffffffffffffffffffffffffffffffffffffffff161415151561436757fe5b61437081612a31565b151561437b57600080fd5b8273ffffffffffffffffffffffffffffffffffffffff1661439b82612b75565b73ffffffffffffffffffffffffffffffffffffffff161415156143bd57600080fd5b6000600860009054906101000a900467ffffffffffffffff166143df83612823565b65ffffffffffff161667ffffffffffffffff161415156143fe57600080fd5b61440781615000565b6144128383836150ff565b808273ffffffffffffffffffffffffffffffffffffffff168473ffffffffffffffffffffffffffffffffffffffff167f9ed053bb818ff08b8353cd46f78db1f0799f31c9e4458fdb425c10eccd2efc4460016040518082815260200191505060405180910390a4505050565b60008060009050823b905060008111915050919050565b60608060008060008060028760ff1614806144b3575060088760ff16145b806144c15750600a8760ff16145b806144cf575060108760ff16145b15156144da57600080fd5b6000881415614520576040805190810160405280600181526020017f300000000000000000000000000000000000000000000000000000000000000081525095506148ef565b6101006040519080825280601f01601f1916602001820160405280156145555781602001602082028038833980820191505090505b509450600093505b600088111561460d578660ff168881151561457457fe5b069250603083019150600a8360ff161115614590576007820191505b817f01000000000000000000000000000000000000000000000000000000000000000285858060010196508151811015156145c757fe5b9060200101907effffffffffffffffffffffffffffffffffffffffffffffffffffffffffffff1916908160001a9053508660ff168881151561460557fe5b04975061455d565b839050600093505b60028181151561462157fe5b048410156148eb578484600183030381518110151561463c57fe5b9060200101517f010000000000000000000000000000000000000000000000000000000000000090047f010000000000000000000000000000000000000000000000000000000000000002858581518110151561469557fe5b90602001018181517f010000000000000000000000000000000000000000000000000000000000000090047f010000000000000000000000000000000000000000000000000000000000000002189150907effffffffffffffffffffffffffffffffffffffffffffffffffffffffffffff1916908160001a905350848481518110151561471e57fe5b9060200101517f010000000000000000000000000000000000000000000000000000000000000090047f0100000000000000000000000000000000000000000000000000000000000000028585600184030381518110151561477c57fe5b90602001018181517f010000000000000000000000000000000000000000000000000000000000000090047f010000000000000000000000000000000000000000000000000000000000000002189150907effffffffffffffffffffffffffffffffffffffffffffffffffffffffffffff1916908160001a9053508484600183030381518110151561480a57fe5b9060200101517f010000000000000000000000000000000000000000000000000000000000000090047f010000000000000000000000000000000000000000000000000000000000000002858581518110151561486357fe5b90602001018181517f010000000000000000000000000000000000000000000000000000000000000090047f010000000000000000000000000000000000000000000000000000000000000002189150907effffffffffffffffffffffffffffffffffffffffffffffffffffffffffffff1916908160001a9053508380600101945050614615565b8495505b505050505092915050565b60608060608060008087945086935083518551016040519080825280601f01601f1916602001820160405280156149405781602001602082028038833980820191505090505b509250600091505b84518210156149f557848281518110151561495f57fe5b9060200101517f010000000000000000000000000000000000000000000000000000000000000090047f01000000000000000000000000000000000000000000000000000000000000000283838151811015156149b857fe5b9060200101907effffffffffffffffffffffffffffffffffffffffffffffffffffffffffffff1916908160001a9053508180600101925050614948565b845190505b8351811015614aaa578385518203815181101515614a1457fe5b9060200101517f010000000000000000000000000000000000000000000000000000000000000090047f0100000000000000000000000000000000000000000000000000000000000000028382815181101515614a6d57fe5b9060200101907effffffffffffffffffffffffffffffffffffffffffffffffffffffffffffff1916908160001a90535080806001019150506149fa565b829550505050505092915050565b614ac0615398565b60008963ffffffff16111515614ad557600080fd5b614ae48963ffffffff16612a31565b151515614af057600080fd5b610180604051908101604052808761ffff1660108a61ffff1663ffffffff169060020a0263ffffffff1660208c63ffffffff1667ffffffffffffffff169060020a02171767ffffffffffffffff1681526020018660ff168152602001600063ffffffff1681526020018560ff168152602001600063ffffffff1681526020018362ffffff1660188660ff1663ffffffff169060020a021763ffffffff168152602001600063ffffffff168152602001600065ffffffffffff1681526020014363ffffffff168152602001600660008d73ffffffffffffffffffffffffffffffffffffffff1673ffffffffffffffffffffffffffffffffffffffff1681526020019081526020016000208054905063ffffffff168152602001600063ffffffff1681526020018b73ffffffffffffffffffffffffffffffffffffffff168152509050600660008b73ffffffffffffffffffffffffffffffffffffffff1673ffffffffffffffffffffffffffffffffffffffff16815260200190815260200160002089908060018154018082558091505090600182039060005260206000209060089182820401919006600402909192909190916101000a81548163ffffffff021916908363ffffffff1602179055505080600360008b63ffffffff16815260200190815260200160002060008201518160000160006101000a81548167ffffffffffffffff021916908367ffffffffffffffff16021790555060208201518160000160086101000a81548160ff021916908360ff16021790555060408201518160000160096101000a81548163ffffffff021916908363ffffffff160217905550606082015181600001600d6101000a81548160ff021916908360ff160217905550608082015181600001600e6101000a81548163ffffffff021916908363ffffffff16021790555060a08201518160000160126101000a81548163ffffffff021916908363ffffffff16021790555060c08201518160000160166101000a81548163ffffffff021916908363ffffffff16021790555060e082015181600001601a6101000a81548165ffffffffffff021916908365ffffffffffff1602179055506101008201518160010160006101000a81548163ffffffff021916908363ffffffff1602179055506101208201518160010160046101000a81548163ffffffff021916908363ffffffff1602179055506101408201518160010160086101000a81548163ffffffff021916908363ffffffff16021790555061016082015181600101600c6101000a81548173ffffffffffffffffffffffffffffffffffffffff021916908373ffffffffffffffffffffffffffffffffffffffff160217905550905050600789908060018154018082558091505090600182039060005260206000209060089182820401919006600402909192909190916101000a81548163ffffffff021916908363ffffffff160217905550508863ffffffff168a73ffffffffffffffffffffffffffffffffffffffff163373ffffffffffffffffffffffffffffffffffffffff167fad1f152c061f6e528e6e53a190e109d8a7f4c5206a07f973fcf65428c0df566260405160405180910390a48863ffffffff168a73ffffffffffffffffffffffffffffffffffffffff16600073ffffffffffffffffffffffffffffffffffffffff167f9ed053bb818ff08b8353cd46f78db1f0799f31c9e4458fdb425c10eccd2efc4460016040518082815260200191505060405180910390a450505050505050505050565b600073ffffffffffffffffffffffffffffffffffffffff166004600083815260200190815260200160002060009054906101000a900473ffffffffffffffffffffffffffffffffffffffff1673ffffffffffffffffffffffffffffffffffffffff161415156150fc576004600082815260200190815260200160002060006101000a81549073ffffffffffffffffffffffffffffffffffffffff021916905580600073ffffffffffffffffffffffffffffffffffffffff163373ffffffffffffffffffffffffffffffffffffffff167f8c5be1e5ebec7d5bd14f71427d1e84f3dd0314c0f7b2291e5b200ac8c7c3b92560405160405180910390a45b50565b600080600080600080869550868663ffffffff1614151561511c57fe5b600360008881526020019081526020016000209450600660008a73ffffffffffffffffffffffffffffffffffffffff1673ffffffffffffffffffffffffffffffffffffffff1681526020019081526020016000209350600660008973ffffffffffffffffffffffffffffffffffffffff1673ffffffffffffffffffffffffffffffffffffffff168152602001908152602001600020925060008480549050141515156151c457fe5b8460010160049054906101000a900463ffffffff1691508360018580549050038154811015156151f057fe5b90600052602060002090600891828204019190066004029054906101000a900463ffffffff16905081600360008363ffffffff16815260200190815260200160002060010160046101000a81548163ffffffff021916908363ffffffff16021790555080848363ffffffff1681548110151561526857fe5b90600052602060002090600891828204019190066004026101000a81548163ffffffff021916908363ffffffff160217905550838054809190600190036152af9190615452565b5082805490508560010160046101000a81548163ffffffff021916908363ffffffff1602179055508785600101600c6101000a81548173ffffffffffffffffffffffffffffffffffffffff021916908373ffffffffffffffffffffffffffffffffffffffff160217905550438560010160086101000a81548163ffffffff021916908363ffffffff1602179055508286908060018154018082558091505090600182039060005260206000209060089182820401919006600402909192909190916101000a81548163ffffffff021916908363ffffffff16021790555050505050505050505050565b61018060405190810160405280600067ffffffffffffffff168152602001600060ff168152602001600063ffffffff168152602001600060ff168152602001600063ffffffff168152602001600063ffffffff168152602001600063ffffffff168152602001600065ffffffffffff168152602001600063ffffffff168152602001600063ffffffff168152602001600063ffffffff168152602001600073ffffffffffffffffffffffffffffffffffffffff1681525090565b815481835581811115615487576007016008900481600701600890048360005260206000209182019101615486919061548c565b5b505050565b6154ae91905b808211156154aa576000816000905550600101615492565b5090565b905600a165627a7a72305820b89f64d87a476628d79b20e9be8f9b03105a8b0a3843e959d6de8c4026d842be0029",
  "source": "pragma solidity 0.4.24;\n\nimport \"./AddressUtils.sol\";\nimport \"./StringUtils.sol\";\nimport \"./AccessControl.sol\";\nimport \"./ERC721Receiver.sol\";\nimport \"./ERC165.sol\";\n\n/**\n * @notice Gem is unique tradable entity. Non-fungible.\n * @dev A gem is an ERC721 non-fungible token, which maps Token ID,\n *      a 32 bit number to a set of gem properties -\n *      attributes (mostly immutable by their nature) and state variables (mutable)\n * @dev A gem token supports only minting, it can be only created\n */\ncontract GemERC721 is AccessControl, ERC165 {\n  /// @dev Smart contract version\n  /// @dev Should be incremented manually in this source code\n  ///      each time smart contact source code is changed\n  uint32 public constant TOKEN_VERSION = 0x3;\n\n  /// @dev ERC20 compliant token symbol\n  string public constant symbol = \"GEM\";\n  /// @dev ERC20 compliant token name\n  string public constant name = \"GEM  CryptoMiner World\";\n  /// @dev ERC20 compliant token decimals\n  /// @dev this can be only zero, since ERC721 token is non-fungible\n  uint8 public constant decimals = 0;\n\n  /// @dev A gem data structure\n  /// @dev Occupies 64 bytes of storage (512 bits)\n  struct Gem {\n    /// High 256 bits\n    /// @dev Where gem was found: land plot ID,\n    ///      land block within a plot,\n    ///      gem number (id) within a block of land, immutable\n    uint64 coordinates;\n\n    /// @dev Gem color, one of 12 values, immutable\n    uint8 color;\n\n    /// @dev Level modified time\n    /// @dev Stored as Ethereum Block Number of the transaction\n    ///      when the gem was created\n    uint32 levelModified;\n\n    /// @dev Level value (mutable), one of 1, 2, 3, 4, 5\n    uint8 level;\n\n    /// @dev Grade modified time\n    /// @dev Stored as Ethereum Block Number of the transaction\n    ///      when the gem was created\n    uint32 gradeModified;\n\n    /// @dev High 8 bits store grade type and low 24 bits grade value\n    /// @dev Grade type is one of D (1), C (2), B (3), A (4), AA (5) and AAA (6)\n    uint32 grade;\n\n    /// @dev Store state modified time\n    /// @dev Stored as Ethereum Block Number of the transaction\n    ///      when the gem was created\n    uint32 stateModified;\n\n    /// @dev State value, mutable\n    uint48 state;\n\n\n    /// Low 256 bits\n    /// @dev Gem creation time, immutable, cannot be zero\n    /// @dev Stored as Ethereum Block Number of the transaction\n    ///      when the gem was created\n    uint32 creationTime;\n\n    /// @dev Gem index within an owner's collection of gems, mutable\n    uint32 index;\n\n    /// @dev Initially zero, changes when ownership is transferred\n    /// @dev Stored as Ethereum Block Number of the transaction\n    ///      when the gem's ownership was changed, mutable\n    uint32 ownershipModified;\n\n    /// @dev Gem's owner, initialized upon gem creation, mutable\n    address owner;\n  }\n\n  /// @notice All the emitted gems\n  /// @dev Core of the Gem as ERC721 token\n  /// @dev Maps Gem ID => Gem Data Structure\n  mapping(uint256 => Gem) public gems;\n\n  /// @dev Mapping from a gem ID to an address approved to\n  ///      transfer ownership rights for this gem\n  mapping(uint256 => address) public approvals;\n\n  /// @dev Mapping from owner to operator approvals\n  ///      token owner => approved token operator => is approved\n  mapping(address => mapping(address => bool)) public approvedOperators;\n\n  /// @notice Storage for a collections of tokens\n  /// @notice A collection of tokens is an ordered list of token IDs,\n  ///      owned by a particular address (owner)\n  /// @dev A mapping from owner to a collection of his tokens (IDs)\n  /// @dev ERC20 compliant structure for balances can be derived\n  ///      as a length of each collection in the mapping\n  /// @dev ERC20 balances[owner] is equal to collections[owner].length\n  mapping(address => uint32[]) public collections;\n\n  /// @dev Array with all token ids, used for enumeration\n  /// @dev ERC20 compliant structure for totalSupply can be derived\n  ///      as a length of this collection\n  /// @dev ERC20 totalSupply() is equal to allTokens.length\n  uint32[] public allTokens;\n\n  /// @dev The data in token's state may contain lock(s)\n  ///      (ex.: is gem currently mining or not)\n  /// @dev A locked token cannot be transferred or upgraded\n  /// @dev The token is locked if it contains any bits\n  ///      from the `lockedBitmask` in its `state` set\n  uint64 public lockedBitmask = DEFAULT_MINING_BIT;\n\n  /// @dev Enables ERC721 transfers of the tokens\n  uint32 public constant FEATURE_TRANSFERS = 0x00000001;\n\n  /// @dev Enables ERC721 transfers on behalf\n  uint32 public constant FEATURE_TRANSFERS_ON_BEHALF = 0x00000002;\n\n  /// @dev Enables partial support of ERC20 transfers of the tokens,\n  ///      allowing to transfer only all owned tokens at once\n  //uint32 public constant ERC20_TRANSFERS = 0x00000004;\n\n  /// @dev Enables partial support of ERC20 transfers on behalf\n  ///      allowing to transfer only all owned tokens at once\n  //uint32 public constant ERC20_TRANSFERS_ON_BEHALF = 0x00000008;\n\n  /// @dev Enables full support of ERC20 transfers of the tokens,\n  ///      allowing to transfer arbitrary amount of the tokens at once\n  //uint32 public constant ERC20_INSECURE_TRANSFERS = 0x00000010;\n\n  /// @dev Default bitmask indicating that the gem is `mining`\n  /// @dev Consists of a single bit at position 1  binary 1\n  /// @dev This bit is cleared by `miningComplete`\n  /// @dev The bit meaning in gem's `state` is as follows:\n  ///      0: not mining\n  ///      1: mining\n  uint64 public constant DEFAULT_MINING_BIT = 0x1; // bit number 1\n  \n  /// @notice Exchange is responsible for trading tokens on behalf of token holders\n  /// @dev Role ROLE_EXCHANGE allows executing transfer on behalf of token holders\n  /// @dev Not used\n  //uint32 public constant ROLE_EXCHANGE = 0x00010000;\n\n  /// @notice Level provider is responsible for enabling the workshop\n  /// @dev Role ROLE_LEVEL_PROVIDER allows leveling up the gem\n  uint32 public constant ROLE_LEVEL_PROVIDER = 0x00100000;\n\n  /// @notice Grade provider is responsible for enabling the workshop\n  /// @dev Role ROLE_GRADE_PROVIDER allows modifying gem's grade\n  uint32 public constant ROLE_GRADE_PROVIDER = 0x00200000;\n\n  /// @notice Token state provider is responsible for enabling the mining protocol\n  /// @dev Role ROLE_STATE_PROVIDER allows modifying token's state\n  uint32 public constant ROLE_STATE_PROVIDER = 0x00400000;\n\n  /// @notice Token state provider is responsible for enabling the mining protocol\n  /// @dev Role ROLE_STATE_LOCK_PROVIDER allows modifying token's locked bitmask\n  uint32 public constant ROLE_STATE_LOCK_PROVIDER = 0x00800000;\n\n  /// @notice Token creator is responsible for creating tokens\n  /// @dev Role ROLE_TOKEN_CREATOR allows minting tokens\n  uint32 public constant ROLE_TOKEN_CREATOR = 0x00040000;\n\n  /// @notice Token destroyer is responsible for destroying tokens\n  /// @dev Role ROLE_TOKEN_DESTROYER allows burning tokens\n  //uint32 public constant ROLE_TOKEN_DESTROYER = 0x00080000;\n\n  /// @dev Magic value to be returned upon successful reception of an NFT\n  /// @dev Equal to `bytes4(keccak256(\"onERC721Received(address,address,uint256,bytes)\"))`,\n  ///      which can be also obtained as `ERC721Receiver(0).onERC721Received.selector`\n  bytes4 private constant ERC721_RECEIVED = 0x150b7a02;\n\n  /**\n   * Supported interfaces section\n   */\n\n  /**\n   * ERC721 interface definition in terms of ERC165\n   *\n   * 0x80ac58cd ==\n   *   bytes4(keccak256('balanceOf(address)')) ^\n   *   bytes4(keccak256('ownerOf(uint256)')) ^\n   *   bytes4(keccak256('approve(address,uint256)')) ^\n   *   bytes4(keccak256('getApproved(uint256)')) ^\n   *   bytes4(keccak256('setApprovalForAll(address,bool)')) ^\n   *   bytes4(keccak256('isApprovedForAll(address,address)')) ^\n   *   bytes4(keccak256('transferFrom(address,address,uint256)')) ^\n   *   bytes4(keccak256('safeTransferFrom(address,address,uint256)')) ^\n   *   bytes4(keccak256('safeTransferFrom(address,address,uint256,bytes)'))\n   */\n  bytes4 private constant InterfaceId_ERC721 = 0x80ac58cd;\n\n  /**\n   * ERC721 interface extension  exists(uint256)\n   *\n   * 0x4f558e79 == bytes4(keccak256('exists(uint256)'))\n   */\n  bytes4 private constant InterfaceId_ERC721Exists = 0x4f558e79;\n\n  /**\n   * ERC721 interface extension - ERC721Enumerable\n   *\n   * 0x780e9d63 ==\n   *   bytes4(keccak256('totalSupply()')) ^\n   *   bytes4(keccak256('tokenOfOwnerByIndex(address,uint256)')) ^\n   *   bytes4(keccak256('tokenByIndex(uint256)'))\n   */\n  bytes4 private constant InterfaceId_ERC721Enumerable = 0x780e9d63;\n\n  /**\n   * ERC721 interface extension - ERC721Metadata\n   *\n   * 0x5b5e139f ==\n   *   bytes4(keccak256('name()')) ^\n   *   bytes4(keccak256('symbol()')) ^\n   *   bytes4(keccak256('tokenURI(uint256)'))\n   */\n  bytes4 private constant InterfaceId_ERC721Metadata = 0x5b5e139f;\n\n  /// @dev Event names are self-explanatory:\n  /// @dev Fired in mint()\n  /// @dev Address `_by` allows to track who created a token\n  event Minted(address indexed _by, address indexed _to, uint32 indexed _tokenId);\n\n  /// @dev Fired in burn()\n  /// @dev Address `_by` allows to track who destroyed a token\n  //event Burnt(address indexed _from, address _by, uint32 indexed _tokenId);\n\n  /// @dev Fired in transfer(), transferFor(), mint()\n  /// @dev When minting a token, address `_from` is zero\n  /// @dev ERC20/ERC721 compliant event\n  event Transfer(address indexed _from, address indexed _to, uint256 indexed _tokenId, uint256 _value);\n\n  /// @dev Fired in approve()\n  /// @dev ERC721 compliant event\n  event Approval(address indexed _owner, address indexed _approved, uint256 indexed _tokenId);\n\n  /// @dev Fired in setApprovalForAll()\n  /// @dev ERC721 compliant event\n  event ApprovalForAll(address indexed _owner, address indexed _operator, bool _value);\n\n  /// @dev Fired in levelUp()\n  event LevelUp(address indexed _by, address indexed _owner, uint256 indexed _tokenId, uint8 _levelReached);\n\n  /// @dev Fired in upgradeGrade()\n  event UpgradeComplete(address indexed _by, address indexed _owner, uint256 indexed _tokenId, uint32 _gradeFrom, uint32 _gradeTo);\n\n  /// @dev Fired in setState()\n  event StateModified(address indexed _by, address indexed _owner, uint256 indexed _tokenId, uint48 _stateFrom, uint48 _stateTo);\n\n  /// @dev Creates a Gem ERC721 instance,\n  /// @dev Registers a ERC721 interface using ERC165\n  constructor() public {\n    // register the supported interfaces to conform to ERC721 via ERC165\n    _registerInterface(InterfaceId_ERC721);\n    _registerInterface(InterfaceId_ERC721Exists);\n    _registerInterface(InterfaceId_ERC721Enumerable);\n    _registerInterface(InterfaceId_ERC721Metadata);\n  }\n\n  /**\n   * @dev Gets a gem by ID, representing it as two integers.\n   *      The two integers are tightly packed with a gem data:\n   *      First integer (high bits) contains (from higher to lower bits order):\n   *          coordinates:\n   *            plotId,\n   *            depth (block ID),\n   *            gemNum (gem ID within a block)\n   *          color,\n   *          levelModified,\n   *          level,\n   *          gradeModified,\n   *          grade,\n   *          stateModified,\n   *          state,\n   *      Second integer (low bits) contains (from higher to lower bits order):\n   *          creationTime,\n   *          index,\n   *          ownershipModified,\n   *          owner\n   * @dev Throws if gem doesn't exist\n   * @param _tokenId ID of the gem to fetch\n   */\n  function getPacked(uint256 _tokenId) public constant returns(uint256, uint256) {\n    // validate gem existence\n    require(exists(_tokenId));\n\n    // load the gem from storage\n    Gem memory gem = gems[_tokenId];\n\n    // pack high 256 bits of the result\n    uint256 high = uint256(gem.coordinates) << 192\n                 | uint192(gem.color) << 184\n                 | uint184(gem.levelModified) << 152\n                 | uint152(gem.level) << 144\n                 | uint144(gem.gradeModified) << 112\n                 | uint112(gem.grade) << 80\n                 | uint80(gem.stateModified) << 48\n                 | uint48(gem.state);\n\n    // pack low 256 bits of the result\n    uint256 low  = uint256(gem.creationTime) << 224\n                 | uint224(gem.index) << 192\n                 | uint192(gem.ownershipModified) << 160\n                 | uint160(gem.owner);\n\n    // return the whole 512 bits of result\n    return (high, low);\n  }\n\n  /**\n   * @dev Allows to fetch collection of tokens, including internal token data\n   *       in a single function, useful when connecting to external node like INFURA\n   * @param owner an address to query a collection for\n   */\n  function getPackedCollection(address owner) public constant returns (uint80[]) {\n    // get an array of Gem IDs owned by an `owner` address\n    uint32[] memory tokenIds = getCollection(owner);\n\n    // how many gems are there in a collection\n    uint32 balance = uint32(tokenIds.length);\n\n    // data container to store the result\n    uint80[] memory result = new uint80[](balance);\n\n    // fetch token info one by one and pack into structure\n    for(uint32 i = 0; i < balance; i++) {\n      // token ID to work with\n      uint32 tokenId = tokenIds[i];\n      // get the token properties and pack them together with tokenId\n      uint48 properties = getProperties(tokenId);\n\n      // pack the data\n      result[i] = uint80(tokenId) << 48 | properties;\n    }\n\n    // return the packed data structure\n    return result;\n  }\n\n  /**\n   * @notice Retrieves a collection of tokens owned by a particular address\n   * @notice An order of token IDs is not guaranteed and may change\n   *      when a token from the list is transferred\n   * @param owner an address to query a collection for\n   * @return an ordered list of tokens\n   */\n  function getCollection(address owner) public constant returns(uint32[]) {\n    // read a collection from mapping and return\n    return collections[owner];\n  }\n\n  /**\n   * @dev Allows setting the `lockedBitmask` parameter of the contract,\n   *      which is used to determine if a particular token is locked or not\n   * @dev A locked token cannot be transferred, upgraded or burnt\n   * @dev The token is locked if it contains any bits\n   *      from the `lockedBitmask` in its `state` set\n   * @dev Requires sender to have `ROLE_STATE_PROVIDER` permission.\n   * @param bitmask a value to set `lockedBitmask` to\n   */\n  function setLockedBitmask(uint64 bitmask) public {\n    // check that the call is made by a state lock provider\n    require(__isSenderInRole(ROLE_STATE_LOCK_PROVIDER));\n\n    // update the locked bitmask\n    lockedBitmask = bitmask;\n  }\n\n  /**\n   * @dev Gets the coordinates of a token\n   * @param _tokenId ID of the token to get coordinates for\n   * @return a token coordinates\n   */\n  function getCoordinates(uint256 _tokenId) public constant returns(uint64) {\n    // validate token existence\n    require(exists(_tokenId));\n\n    // obtain token's coordinates from storage and return\n    return gems[_tokenId].coordinates;\n  }\n\n  /**\n   * @dev Gets the land plot ID of a gem\n   * @param _tokenId ID of the gem to get land plot ID value for\n   * @return a token land plot ID\n   */\n  function getPlotId(uint256 _tokenId) public constant returns(uint32) {\n    // extract high 32 bits of the coordinates and return\n    return uint32(getCoordinates(_tokenId) >> 32);\n  }\n\n  /**\n   * @dev Gets the depth (block ID) within plot of land of a gem\n   * @param _tokenId ID of the gem to get depth value for\n   * @return a token depth\n   */\n  function getDepth(uint256 _tokenId) public constant returns(uint16) {\n    // extract middle 16 bits of the coordinates and return\n    return uint16(getCoordinates(_tokenId) >> 16);\n  }\n\n  /**\n   * @dev Gets the gem's number within land block\n   * @param _tokenId ID of the gem to get depth value for\n   * @return a gem number within a land block\n   */\n  function getGemNum(uint256 _tokenId) public constant returns(uint16) {\n    // extract low 16 bits of the coordinates and return\n    return uint16(getCoordinates(_tokenId));\n  }\n\n  /**\n   * @dev Gets the gem's properties  color, level and\n   *      grade - as packed uint32 number\n   * @param _tokenId ID of the gem to get properties for\n   * @return gem's properties - color, level, grade as packed uint32\n   */\n  function getProperties(uint256 _tokenId) public constant returns(uint48) {\n    // validate token existence\n    require(exists(_tokenId));\n\n    // read gem from storage\n    Gem memory gem = gems[_tokenId];\n\n    // pack data structure and return\n    return uint48(gem.color) << 40 | uint40(gem.level) << 32 | gem.grade;\n  }\n\n  /**\n   * @dev Gets the color of a token\n   * @param _tokenId ID of the token to get color for\n   * @return a token color\n   */\n  function getColor(uint256 _tokenId) public constant returns(uint8) {\n    // validate token existence\n    require(exists(_tokenId));\n\n    // obtain token's color from storage and return\n    return gems[_tokenId].color;\n  }\n\n  /**\n   * @dev Gets the level modified date of a token\n   * @param _tokenId ID of the token to get level modification date for\n   * @return a token level modification date\n   */\n  function getLevelModified(uint256 _tokenId) public constant returns(uint32) {\n    // validate token existence\n    require(exists(_tokenId));\n\n    // obtain token's level modified date from storage and return\n    return gems[_tokenId].levelModified;\n  }\n\n  /**\n   * @dev Gets the level of a token\n   * @param _tokenId ID of the token to get level for\n   * @return a token level\n   */\n  function getLevel(uint256 _tokenId) public constant returns(uint8) {\n    // validate token existence\n    require(exists(_tokenId));\n\n    // obtain token's level from storage and return\n    return gems[_tokenId].level;\n  }\n\n  /**\n   * @dev Levels up a gem\n   * @dev Requires sender to have `ROLE_STATE_PROVIDER` permission\n   * @param _tokenId ID of the gem to level up\n   */\n  function levelUp(uint256 _tokenId) public {\n    // check that the call is made by a level provider\n    require(__isSenderInRole(ROLE_LEVEL_PROVIDER));\n\n    // check that token to set state for exists\n    require(exists(_tokenId));\n\n    // update the level modified date\n    gems[_tokenId].levelModified = uint32(block.number);\n\n    // increment the level required\n    gems[_tokenId].level++;\n\n    // emit an event\n    emit LevelUp(msg.sender, ownerOf(_tokenId), _tokenId, gems[_tokenId].level);\n  }\n\n  /**\n   * @dev Gets the grade modified date of a gem\n   * @param _tokenId ID of the gem to get grade modified date for\n   * @return a token grade modified date\n   */\n  function getGradeModified(uint256 _tokenId) public constant returns(uint32) {\n    // validate token existence\n    require(exists(_tokenId));\n\n    // obtain token's grade modified date from storage and return\n    return gems[_tokenId].gradeModified;\n  }\n\n  /**\n   * @dev Gets the grade of a gem\n   * @param _tokenId ID of the gem to get grade for\n   * @return a token grade\n   */\n  function getGrade(uint256 _tokenId) public constant returns(uint32) {\n    // validate token existence\n    require(exists(_tokenId));\n\n    // obtain token's grade from storage and return\n    return gems[_tokenId].grade;\n  }\n\n  /**\n   * @dev Gets the grade type of a gem\n   * @param _tokenId ID of the gem to get grade type for\n   * @return a token grade type\n   */\n  function getGradeType(uint256 _tokenId) public constant returns(uint8) {\n    // extract high 8 bits of the grade and return\n    return uint8(getGrade(_tokenId) >> 24);\n  }\n\n  /**\n   * @dev Gets the grade value of a gem\n   * @param _tokenId ID of the gem to get grade value for\n   * @return a token grade value\n   */\n  function getGradeValue(uint256 _tokenId) public constant returns(uint24) {\n    // extract low 24 bits of the grade and return\n    return uint24(getGrade(_tokenId));\n  }\n\n  /**\n   * @dev Upgrades the grade of the gem\n   * @dev Requires new grade to be higher than an old one\n   * @dev Requires sender to have `ROLE_GRADE_PROVIDER` permission\n   * @param _tokenId ID of the gem to modify the grade for\n   * @param grade new grade to set for the token, should be higher then current state\n   */\n  function upgradeGrade(uint256 _tokenId, uint32 grade) public {\n    // check that the call is made by a grade provider\n    require(__isSenderInRole(ROLE_GRADE_PROVIDER));\n\n    // check that token to set grade for exists\n    require(exists(_tokenId));\n\n    // check if we're not downgrading the gem\n    require(gems[_tokenId].grade < grade);\n\n    // emit an event\n    emit UpgradeComplete(msg.sender, ownerOf(_tokenId), _tokenId, gems[_tokenId].grade, grade);\n\n    // set the grade required\n    gems[_tokenId].grade = grade;\n\n    // update the grade modified date\n    gems[_tokenId].gradeModified = uint32(block.number);\n  }\n\n  /**\n   * @dev Gets the state modified date of a token\n   * @param _tokenId ID of the token to get state modified date for\n   * @return a token state modification date\n   */\n  function getStateModified(uint256 _tokenId) public constant returns(uint32) {\n    // validate token existence\n    require(exists(_tokenId));\n\n    // obtain token's state modified date from storage and return\n    return gems[_tokenId].stateModified;\n  }\n\n  /**\n   * @dev Gets the state of a token\n   * @param _tokenId ID of the token to get state for\n   * @return a token state\n   */\n  function getState(uint256 _tokenId) public constant returns(uint48) {\n    // validate token existence\n    require(exists(_tokenId));\n\n    // obtain token's state from storage and return\n    return gems[_tokenId].state;\n  }\n\n  /**\n   * @dev Sets the state of a token\n   * @dev Requires sender to have `ROLE_STATE_PROVIDER` permission\n   * @param _tokenId ID of the token to set state for\n   * @param state new state to set for the token\n   */\n  function setState(uint256 _tokenId, uint48 state) public {\n    // check that the call is made by a state provider\n    require(__isSenderInRole(ROLE_STATE_PROVIDER));\n\n    // check that token to set state for exists\n    require(exists(_tokenId));\n\n    // emit an event\n    emit StateModified(msg.sender, ownerOf(_tokenId), _tokenId, gems[_tokenId].state, state);\n\n    // set the state required\n    gems[_tokenId].state = state;\n\n    // update the state modified date\n    gems[_tokenId].stateModified = uint32(block.number);\n  }\n\n  /**\n   * @dev Gets the creation time of a token\n   * @param _tokenId ID of the token to get creation time for\n   * @return a token creation time\n   */\n  function getCreationTime(uint256 _tokenId) public constant returns(uint32) {\n    // validate token existence\n    require(exists(_tokenId));\n\n    // obtain token's creation time from storage and return\n    return gems[_tokenId].creationTime;\n  }\n\n  /**\n   * @dev Gets the ownership modified time of a token\n   * @param _tokenId ID of the token to get ownership modified time for\n   * @return a token ownership modified time\n   */\n  function getOwnershipModified(uint256 _tokenId) public constant returns(uint32) {\n    // validate token existence\n    require(exists(_tokenId));\n\n    // obtain token's ownership modified time from storage and return\n    return gems[_tokenId].ownershipModified;\n  }\n\n  /**\n   * @notice Total number of existing tokens (tracked by this contract)\n   * @return A count of valid tokens tracked by this contract,\n   *    where each one of them has an assigned and\n   *    queryable owner not equal to the zero address\n   */\n  function totalSupply() public constant returns (uint256) {\n    // read the length of the `allTokens` collection\n    return allTokens.length;\n  }\n\n  /**\n   * @notice Enumerate valid tokens\n   * @dev Throws if `_index` >= `totalSupply()`.\n   * @param _index a counter less than `totalSupply()`\n   * @return The token ID for the `_index`th token, unsorted\n   */\n  function tokenByIndex(uint256 _index) public constant returns (uint256) {\n    // out of bounds check\n    require(_index < allTokens.length);\n\n    // get the token ID and return\n    return allTokens[_index];\n  }\n\n  /**\n   * @notice Enumerate tokens assigned to an owner\n   * @dev Throws if `_index` >= `balanceOf(_owner)`.\n   * @param _owner an address of the owner to query token from\n   * @param _index a counter less than `balanceOf(_owner)`\n   * @return the token ID for the `_index`th token assigned to `_owner`, unsorted\n   */\n  function tokenOfOwnerByIndex(address _owner, uint256 _index) public constant returns (uint256) {\n    // out of bounds check\n    require(_index < collections[_owner].length);\n\n    // get the token ID from owner collection and return\n    return collections[_owner][_index];\n  }\n\n  /**\n   * @notice Gets an amount of token owned by the given address\n   * @dev Gets the balance of the specified address\n   * @param _owner address to query the balance for\n   * @return an amount owned by the address passed as an input parameter\n   */\n  function balanceOf(address _owner) public constant returns (uint256) {\n    // read the length of the `who`s collection of tokens\n    return collections[_owner].length;\n  }\n\n  /**\n   * @notice Checks if specified token exists\n   * @dev Returns whether the specified token ID exists\n   * @param _tokenId ID of the token to query the existence for\n   * @return whether the token exists (true - exists)\n   */\n  function exists(uint256 _tokenId) public constant returns (bool) {\n    // check if this token exists (owner is not zero)\n    return gems[_tokenId].owner != address(0);\n  }\n\n  /**\n   * @notice Finds an owner address for a token specified\n   * @dev Gets the owner of the specified token from the `gems` mapping\n   * @dev Throws if a token with the ID specified doesn't exist\n   * @param _tokenId ID of the token to query the owner for\n   * @return owner address currently marked as the owner of the given token\n   */\n  function ownerOf(uint256 _tokenId) public constant returns (address) {\n    // check if this token exists\n    require(exists(_tokenId));\n\n    // return owner's address\n    return gems[_tokenId].owner;\n  }\n\n  /**\n   * @dev Creates new token with `tokenId` ID specified and\n   *      assigns an ownership `to` for that token\n   * @dev Allows setting initial token's properties\n   * @param to an address to assign created token ownership to\n   * @param tokenId ID of the token to create\n   */\n  function mint(\n    address to,\n    uint32 tokenId,\n    uint32 plotId,\n    uint16 depth,\n    uint16 gemNum,\n    uint8 color,\n    uint8 level,\n    uint8 gradeType,\n    uint24 gradeValue\n  ) public {\n    // validate destination address\n    require(to != address(0));\n    require(to != address(this));\n\n    // check if caller has sufficient permissions to mint a token\n    // and if feature is enabled globally\n    require(__isSenderInRole(ROLE_TOKEN_CREATOR));\n\n    // delegate call to `__mint`\n    __mint(to, tokenId, plotId, depth, gemNum, color, level, gradeType, gradeValue);\n\n    // fire ERC20 transfer event\n    emit Transfer(address(0), to, tokenId, 1);\n  }\n\n  /**\n   * @notice Transfers ownership rights of a token defined\n   *      by the `tokenId` to a new owner specified by address `to`\n   * @dev Requires the sender of the transaction to be an owner\n   *      of the token specified (`tokenId`)\n   * @param to new owner address\n   * @param _tokenId ID of the token to transfer ownership rights for\n   */\n  function transfer(address to, uint256 _tokenId) public {\n    // check if token transfers feature is enabled\n    require(__isFeatureEnabled(FEATURE_TRANSFERS));\n\n    // call sender gracefully - `from`\n    address from = msg.sender;\n\n    // delegate call to unsafe `__transfer`\n    __transfer(from, to, _tokenId);\n  }\n\n  /**\n   * @notice A.k.a \"transfer a token on behalf\"\n   * @notice Transfers ownership rights of a token defined\n   *      by the `tokenId` to a new owner specified by address `to`\n   * @notice Allows transferring ownership rights by a trading operator\n   *      on behalf of token owner. Allows building an exchange of tokens.\n   * @dev Transfers the ownership of a given token ID to another address\n   * @dev Requires the transaction sender to be one of:\n   *      owner of a gem - then its just a usual `transfer`\n   *      approved  an address explicitly approved earlier by\n   *        the owner of a token to transfer this particular token `tokenId`\n   *      operator - an address explicitly approved earlier by\n   *        the owner to transfer all his tokens on behalf\n   * @param from current owner of the token\n   * @param to address to receive the ownership of the token\n   * @param _tokenId ID of the token to be transferred\n   */\n  function transferFrom(address from, address to, uint256 _tokenId) public {\n    // check if transfers on behalf feature is enabled\n    require(__isFeatureEnabled(FEATURE_TRANSFERS_ON_BEHALF));\n\n    // call sender gracefully - `operator`\n    address operator = msg.sender;\n\n    // find if an approved address exists for this token\n    address approved = approvals[_tokenId];\n\n    // we assume `from` is an owner of the token,\n    // this will be explicitly checked in `__transfer`\n\n    // fetch how much approvals left for an operator\n    bool approvedOperator = approvedOperators[from][operator];\n\n    // operator must have an approval to transfer this particular token\n    // or operator must be approved to transfer all the tokens\n    // or, if nothing satisfies, this is equal to regular transfer,\n    // where `from` is basically a transaction sender and owner of the token\n    if(operator != approved && !approvedOperator) {\n      // transaction sender doesn't have any special permissions\n      // we will treat him as a token owner and sender and try to perform\n      // a regular transfer:\n      // check `from` to be `operator` (transaction sender):\n      require(from == operator);\n\n      // additionally check if token transfers feature is enabled\n      require(__isFeatureEnabled(FEATURE_TRANSFERS));\n    }\n\n    // delegate call to unsafe `__transfer`\n    __transfer(from, to, _tokenId);\n  }\n\n  /**\n   * @notice A.k.a \"safe transfer a token on behalf\"\n   * @notice Transfers ownership rights of a token defined\n   *      by the `tokenId` to a new owner specified by address `to`\n   * @notice Allows transferring ownership rights by a trading operator\n   *      on behalf of token owner. Allows building an exchange of tokens.\n   * @dev Safely transfers the ownership of a given token ID to another address\n   * @dev Requires the transaction sender to be the owner, approved, or operator\n   * @dev When transfer is complete, this function\n   *      checks if `_to` is a smart contract (code size > 0). If so, it calls\n   *      `onERC721Received` on `_to` and throws if the return value is not\n   *      `bytes4(keccak256(\"onERC721Received(address,address,uint256,bytes)\"))`.\n   * @param _from current owner of the token\n   * @param _to address to receive the ownership of the token\n   * @param _tokenId ID of the token to be transferred\n   * @param _data Additional data with no specified format, sent in call to `_to`\n   */\n  function safeTransferFrom(address _from, address _to, uint256 _tokenId, bytes _data) public {\n    // delegate call to usual (unsafe) `transferFrom`\n    transferFrom(_from, _to, _tokenId);\n\n    // check if receiver `_to` supports ERC721 interface\n    if (AddressUtils.isContract(_to)) {\n      // if `_to` is a contract  execute onERC721Received\n      bytes4 response = ERC721Receiver(_to).onERC721Received(msg.sender, _from, _tokenId, _data);\n\n      // expected response is ERC721_RECEIVED\n      require(response == ERC721_RECEIVED);\n    }\n  }\n\n  /**\n   * @notice A.k.a \"safe transfer a token on behalf\"\n   * @notice Transfers ownership rights of a token defined\n   *      by the `tokenId` to a new owner specified by address `to`\n   * @notice Allows transferring ownership rights by a trading operator\n   *      on behalf of token owner. Allows building an exchange of tokens.\n   * @dev Safely transfers the ownership of a given token ID to another address\n   * @dev Requires the transaction sender to be the owner, approved, or operator\n   * @dev Requires from to be an owner of the token\n   * @dev If the target address is a contract, it must implement `onERC721Received`,\n   *      which is called upon a safe transfer, and return the magic value\n   *      `bytes4(keccak256(\"onERC721Received(address,uint256,bytes)\"))`;\n   *      otherwise the transfer is reverted.\n   * @dev This works identically to the other function with an extra data parameter,\n   *      except this function just sets data to \"\".\n   * @param _from current owner of the token\n   * @param _to address to receive the ownership of the token\n   * @param _tokenId ID of the token to be transferred\n   */\n  function safeTransferFrom(address _from, address _to, uint256 _tokenId) public {\n    // delegate call to overloaded `safeTransferFrom`, set data to \"\"\n    safeTransferFrom(_from, _to, _tokenId, \"\");\n  }\n\n  /**\n   * @notice Approves an address to transfer the given token on behalf of its owner\n   *      Can also be used to revoke an approval by setting `to` address to zero\n   * @dev The zero `to` address revokes an approval for a given token\n   * @dev There can only be one approved address per token at a given time\n   * @dev This function can only be called by the token owner\n   * @param _approved address to be approved to transfer the token on behalf of its owner\n   * @param _tokenId ID of the token to be approved for transfer on behalf\n   */\n  function approve(address _approved, uint256 _tokenId) public {\n    // call sender nicely - `from`\n    address from = msg.sender;\n\n    // get token owner address (also ensures that token exists)\n    address owner = ownerOf(_tokenId);\n\n    // caller must own this token\n    require(from == owner);\n    // approval for owner himself is pointless, do not allow\n    require(_approved != owner);\n    // either we're removing approval, or setting it\n    require(approvals[_tokenId] != address(0) || _approved != address(0));\n\n    // set an approval (deletes an approval if to == 0)\n    approvals[_tokenId] = _approved;\n\n    // emit an ERC721 event\n    emit Approval(from, _approved, _tokenId);\n  }\n\n  /**\n   * @notice Removes an approved address, which was previously added by `approve`\n   *      for the given token. Equivalent to calling approve(0, tokenId)\n   * @dev Same as calling approve(0, tokenId)\n   * @param _tokenId ID of the token to remove approved address for\n   */\n  function revokeApproval(uint256 _tokenId) public {\n    // delegate call to `approve`\n    approve(address(0), _tokenId);\n  }\n\n  /**\n   * @dev Sets or unsets the approval of a given operator\n   * @dev An operator is allowed to transfer *all* tokens of the sender on their behalf\n   * @param to operator address to set the approval for\n   * @param approved representing the status of the approval to be set\n   */\n  function setApprovalForAll(address to, bool approved) public {\n    // call sender nicely - `from`\n    address from = msg.sender;\n\n    // validate destination address\n    require(to != address(0));\n\n    // approval for owner himself is pointless, do not allow\n    require(to != from);\n\n    // set an approval\n    approvedOperators[from][to] = approved;\n\n    // emit an ERC721 compliant event\n    emit ApprovalForAll(from, to, approved);\n  }\n\n  /**\n   * @notice Get the approved address for a single token\n   * @dev Throws if `_tokenId` is not a valid token ID.\n   * @param _tokenId ID of the token to find the approved address for\n   * @return the approved address for this token, or the zero address if there is none\n   */\n  function getApproved(uint256 _tokenId) public constant returns (address) {\n    // validate token existence\n    require(exists(_tokenId));\n\n    // find approved address and return\n    return approvals[_tokenId];\n  }\n\n  /**\n   * @notice Query if an address is an authorized operator for another address\n   * @param _owner the address that owns at least one token\n   * @param _operator the address that acts on behalf of the owner\n   * @return true if `_operator` is an approved operator for `_owner`, false otherwise\n   */\n  function isApprovedForAll(address _owner, address _operator) public constant returns (bool) {\n    // is there a positive amount of approvals left\n    return approvedOperators[_owner][_operator];\n  }\n\n  /**\n   * @notice A distinct Uniform Resource Identifier (URI) for a given asset.\n   * @dev Throws if `_tokenId` is not a valid token ID.\n   *      URIs are defined in RFC 3986.\n   * @param _tokenId uint256 ID of the token to query\n   * @return token URI\n   */\n  function tokenURI(uint256 _tokenId) public constant returns (string) {\n    // validate token existence\n    require(exists(_tokenId));\n\n    // token URL consists of base URL part (domain) and token ID\n    return StringUtils.concat(\"http://cryptominerworld.com/gem/\", StringUtils.itoa(_tokenId, 16));\n  }\n\n  /// @dev Creates new token with `tokenId` ID specified and\n  ///      assigns an ownership `to` for this token\n  /// @dev Unsafe: doesn't check if caller has enough permissions to execute the call\n  ///      checks only that the token doesn't exist yet\n  /// @dev Must be kept private at all times\n  function __mint(\n    address to,\n    uint32 tokenId,\n    uint32 plotId,\n    uint16 depth,\n    uint16 gemNum,\n    uint8 color,\n    uint8 level,\n    uint8 gradeType,\n    uint24 gradeValue\n  ) private {\n    // check that `tokenId` is inside valid bounds\n    require(tokenId > 0);\n\n    // ensure that token with such ID doesn't exist\n    require(!exists(tokenId));\n\n    // create new gem in memory\n    Gem memory gem = Gem({\n      coordinates: uint64(plotId) << 32 | uint32(depth) << 16 | gemNum,\n      color: color,\n      levelModified: 0,\n      level: level,\n      gradeModified: 0,\n      grade: uint32(gradeType) << 24 | gradeValue,\n      stateModified: 0,\n      state: 0,\n\n      creationTime: uint32(block.number),\n      // token index within the owner's collection of token\n      // points to the place where the token will be placed to\n      index: uint32(collections[to].length),\n      ownershipModified: 0,\n      owner: to\n    });\n\n    // push newly created `tokenId` to the owner's collection of tokens\n    collections[to].push(tokenId);\n\n    // persist gem to the storage\n    gems[tokenId] = gem;\n\n    // add token ID to the `allTokens` collection,\n    // automatically updates total supply\n    allTokens.push(tokenId);\n\n    // fire Minted event\n    emit Minted(msg.sender, to, tokenId);\n    // fire ERC20/ERC721 transfer event\n    emit Transfer(address(0), to, tokenId, 1);\n  }\n\n  /// @dev Performs a transfer of a token `tokenId` from address `from` to address `to`\n  /// @dev Unsafe: doesn't check if caller has enough permissions to execute the call;\n  ///      checks only for token existence and that ownership belongs to `from`\n  /// @dev Is save to call from `transfer(to, tokenId)` since it doesn't need any additional checks\n  /// @dev Must be kept private at all times\n  function __transfer(address from, address to, uint256 _tokenId) private {\n    // validate source and destination address\n    require(to != address(0));\n    require(to != from);\n    // impossible by design of transfer(), transferFrom(),\n    // approveToken() and approve()\n    assert(from != address(0));\n\n    // validate token existence\n    require(exists(_tokenId));\n\n    // validate token ownership\n    require(ownerOf(_tokenId) == from);\n\n    // transfer is not allowed for a locked gem\n    // (ex.: if ge is currently mining)\n    require(getState(_tokenId) & lockedBitmask == 0);\n\n    // clear approved address for this particular token + emit event\n    __clearApprovalFor(_tokenId);\n\n    // move gem ownership,\n    // update old and new owner's gem collections accordingly\n    __move(from, to, _tokenId);\n\n    // fire ERC20/ERC721 transfer event\n    emit Transfer(from, to, _tokenId, 1);\n  }\n\n  /// @dev Clears approved address for a particular token\n  function __clearApprovalFor(uint256 _tokenId) private {\n    // check if approval exists - we don't want to fire an event in vain\n    if(approvals[_tokenId] != address(0)) {\n      // clear approval\n      delete approvals[_tokenId];\n\n      // emit an ERC721 event\n      emit Approval(msg.sender, address(0), _tokenId);\n    }\n  }\n\n  /// @dev Move a `gem` from owner `from` to a new owner `to`\n  /// @dev Unsafe, doesn't check for consistence\n  /// @dev Must be kept private at all times\n  function __move(address from, address to, uint256 _tokenId) private {\n    // cast token ID to uint32 space\n    uint32 tokenId = uint32(_tokenId);\n\n    // overflow check, failure impossible by design of mint()\n    assert(tokenId == _tokenId);\n\n    // get the gem pointer to the storage\n    Gem storage gem = gems[_tokenId];\n\n    // get a reference to the collection where gem is now\n    uint32[] storage source = collections[from];\n\n    // get a reference to the collection where gem goes to\n    uint32[] storage destination = collections[to];\n\n    // collection `source` cannot be empty, if it is - it's a bug\n    assert(source.length != 0);\n\n    // index of the gem within collection `source`\n    uint32 i = gem.index;\n\n    // we put the last gem in the collection `source` to the position released\n    // get an ID of the last gem in `source`\n    uint32 sourceId = source[source.length - 1];\n\n    // update gem index to point to proper place in the collection `source`\n    gems[sourceId].index = i;\n\n    // put it into the position i within `source`\n    source[i] = sourceId;\n\n    // trim the collection `source` by removing last element\n    source.length--;\n\n    // update gem index according to position in new collection `destination`\n    gem.index = uint32(destination.length);\n\n    // update gem owner\n    gem.owner = to;\n\n    // update ownership transfer date\n    gem.ownershipModified = uint32(block.number);\n\n    // push gem into collection\n    destination.push(tokenId);\n  }\n\n}\n",
  "sourcePath": "/Users/joshpitzalis/Desktop/auction/contracts/GemERC721.sol",
  "compiler": {
    "name": "solc",
    "version": "0.4.24+commit.e67f0147.Emscripten.clang"
  },
  "schemaVersion": "2.0.0",
  "updatedAt": "2018-08-24T09:28:23.231Z"
}